:100000000C942E010C943E100C9413100C94E80FD9
:100010000C94BD0F0C94920F0C94670F0C943C0F32
:100020000C94110F0C945F010C945F010C945F0110
:100030000C945F010C945F010C945F010C945F01C0
:100040000C945F010C945F010C945F010C945F01B0
:100050000C945F010C945F010C945F010C94C70E2B
:100060000C945F010C949B100C9469100C945F012C
:100070000C945F010C945F010C945F010C945F0180
:100080000C945F010C945F010C945F010C945F0170
:100090000C945F010C945F010C945F010C945F0160
:1000A0000C945F010C945F010C945F010C945F0150
:1000B0000C945F010C945F010C945F010C945F0140
:1000C0000C945F010C945F010C945F010C945F0130
:1000D0000C945F010C945F010C945F010C945F0120
:1000E0000C945F010C94E0010C94EF010C94150248
:1000F0000C94F5010C9411020C947F020C94E40111
:100100000C9449130C940D020C941B020C940E03D6
:100110000C941A020C94E8010C9407020C941F0230
:100120000C94DA010C94FF010C9463140C94EC0110
:100130000C9403020C94F901000020002300260017
:1001400029002C002F0032000001000003010601ED
:10015000090100000A0B02090C0D0E080703040137
:10016000000000000000000000000000000000008F
:10017000000000000000000000000000000012115C
:10018000100000000000000000000000000000005F
:1001900000000000000000000000220025002800F0
:1001A0002B002E003100340002010000050108017F
:1001B0000B0100002100240027002A002D00300040
:1001C000330001010000040107010A0105050505CE
:1001D000070508080808020202020A0A08080404BF
:1001E00004040101010101010101030303030303ED
:1001F0000303040707070C0C0C0C0C0C0C0C02027C
:10020000020206060606060606060B0B0B0B0B0B78
:100210000B0B010210202008081020401020408005
:1002200002010201080402010102040810204080BA
:100230008040201008040201800402018040201048
:100240000804020108040201010204081020408091
:1002500001020408102040804913631411241FBEBA
:10026000CFEFD1E2DEBFCDBF00E00CBF13E0A0E0D6
:10027000B2E0EAE8FFE200E00BBF02C007900D9297
:10028000AA33B107D9F724E0AAE3B3E001C01D9275
:10029000AB3FB207E1F711E0CDE2D1E000E006C0EC
:1002A00021970109802FFE010E947815CC32D107D9
:1002B00080E00807A9F70E94D1100C94B3170C94A2
:1002C00000009091F6049F31C9F09091F6049F5F71
:1002D0002091F5042917E1F32091F504921769F0B4
:1002E000E091F604F0E0EB52FB4F80839093F6042C
:1002F0008091C10080628093C100089590E0E8CFB2
:1003000090E0FC01EE5EFD4F249184539E4FFC0172
:100310008491882399F090E0880F991FFC01EE5496
:10032000FE4FA591B491FC01E856FE4F8591949142
:100330008FB7F894EC91E22BEC938FBF0895EF9276
:10034000FF920F931F93CF93DF93FC0104811581DC
:10035000C081D1817801EC0EFD1EEC16FD0621F066
:1003600089910E946101F9CFC801DF91CF911F915E
:100370000F91FF90EF9008958150823108F05AC09C
:10038000E82FF0E08827E853FE4F8F4F0C94781544
:10039000E801EC01DA01E001E4011A02EF01F501E4
:1003A000F901FF01030207020D0211021A021502F0
:1003B0001B021F02809180008F7780938000089538
:1003C000809180008F7DF9CF80918000877FF5CF6D
:1003D00084B58F7784BD089584B58F7DFBCF8091E0
:1003E000B0008F778093B00008958091B0008F7D2A
:1003F000F9CF809190008F7780939000089580913D
:1004000090008F7DF9CF80919000877FF5CF80910C
:10041000A0008F778093A00008958091A0008F7D29
:10042000F9CF8091A000877FF5CF809120018F7751
:10043000809320010895809120018F7DF9CF8091D4
:100440002001877FF5CF1F93CF93DF93E8E6F1E09C
:100450009491E8E2F2E0D491E2EEF1E0C491CC2391
:10046000B9F0182F992319F0892F0E94BC01EC2FA5
:10047000F0E0EE0FFF1FE856FE4FA591B4918FB745
:10048000F894EC91111108C0D095DE23DC938FBF56
:10049000DF91CF911F910895DE2BF8CF3FB7F894ED
:1004A0008091D1049091D204A091D304B091D4044E
:1004B00026B5A89B05C02F3F19F00196A11DB11DBF
:1004C0003FBFBA2FA92F982F8827BC01CD01620FFB
:1004D000711D811D911D42E0660F771F881F991FB6
:1004E0004A95D1F708952FB7F8946091CD04709193
:1004F000CE048091CF049091D0042FBF0895089529
:100500004F925F926F927F92BF92CF92DF92EF9263
:10051000FF920F931F93CF93DF93FC01B584B1102B
:1005200010C040E0842FDF91CF911F910F91FF9079
:10053000EF90DF90CF90BF907F906F905F904F9043
:100540000895EC018685882361F10E94730248803A
:1005500059806A807B80CC80DD80EE80FF808B01BB
:100560009C0104191509260937090C151D052E05CE
:100570003F05B8F24C854423E9F08B019C010C192E
:100580001D092E093F094C0C5D1C6E1C7F1C4C1470
:100590005D046E047F0440F4488259826A827B8243
:1005A000C1CF0E944E02D3CF401651066206730699
:1005B00050F3F2CF1D864B2DB5CFCF93DF93EC01D7
:1005C0008E85882349F00E947302688379838A8329
:1005D0009B83DF91CF9108950E944E02F6CF0F9337
:1005E0001F93CF93DF93EC011D868E85882399F0AE
:1005F0000E947302088119812A813B81601B710B63
:10060000820B930B688779878A879B87DF91CF91CD
:100610001F910F9108950E944E02ECCFCF92DF926E
:10062000EF92FF9280910804909109049C0121505F
:1006300031093093090420930804892BD9F589E006
:1006400090E090930904809308040E944E02C090A9
:100650000404D0900504E0900604F09007046C199F
:100660007D098E099F0960930004709301048093B3
:100670000204909303048091000490910104A091DE
:100680000204B09103044091040450910504609168
:10069000060470910704840F951FA61FB71F80934F
:1006A000040490930504A0930604B093070481E02A
:1006B00080930A04C0908E03D0908F03E090900343
:1006C000F0909103F601EE0FFF1FE059FD4FA0815E
:1006D000B181209192033091930340919403509102
:1006E00095030E941B15F601EE0FFF1FEE0FFF1F73
:1006F000E659FB4F20813181428153810E942315AD
:10070000E0918A03F0918B03EE0FFF1FEE0FFF1FA6
:10071000E05CFD4F8091CA049091CB04092E000C3F
:10072000AA0BBB0BC080D180E280F3808C0D9D1D95
:10073000AE1DBF1D820F931FA41FB51F0097A105FB
:10074000B105C1F08093400490934104A09342040A
:10075000B093430481E080934804809349048CE380
:1007600094E00E94DD0210924804FF90EF90DF9029
:10077000CF9008958CE394E00E94EF02F4CFEF92C3
:10078000FF920F931F93CF93DF93FC010190002002
:10079000E9F731978F01081B190BEC017C01E00E82
:1007A000F11ECE15DF0521F089910E946101F9CF7C
:1007B000C801DF91CF911F910F91FF90EF900895A5
:1007C000FC0180819181009711F00C94671460E026
:1007D00070E0CB010895FC0124813581232B39F48D
:1007E00021E0FB018081882349F020E007C080815F
:1007F00091810E94A31721E0892BB9F7822F0895D8
:100800000F931F93CF93DF93EC0188819981009719
:1008100059F02A813B812617370730F081E0DF91BC
:10082000CF911F910F9108958B016F5F7F4F0E94B1
:10083000B916009759F0998388831B830A832C810A
:100840003D81232B59F7FC011082E8CF80E0E7CFF0
:10085000EF92FF920F931F93CF93DF936115710572
:1008600041F480E0DF91CF911F910F91FF90EF90C5
:10087000089541155105B1F07B01EC010C811D81FA
:10088000040F151FB8010E940004882351F328812A
:1008900039818C819D81B701820F931F0E94AC1713
:1008A0001D830C8381E0DECFCF93DF93EC01888141
:1008B0009981009711F00E943016198218821D82CA
:1008C0001C821B821A82DF91CF910895CF93DF9310
:1008D000EC0141E050E06EEA72E00E9428048111D0
:1008E00003C0CE010E945404CE01DF91CF91089540
:1008F000CF93DF93EC01FB014481558160817181CD
:100900000E942804811103C0CE010E945404CE012C
:10091000DF91CF910895EF92FF920F931F93CF93A2
:10092000DF93EC017B018A01BA010E94000481116E
:100930000BC0CE010E945404CE01DF91CF911F91D4
:100940000F91FF90EF9008951D830C83B70188816C
:1009500099810E94AC17F0CFFB0101900020E9F7CC
:100960003197AF01461B570B0C948B040F931F93C9
:10097000CF93DF93CDB7DEB762970FB6F894DEBFA3
:100980000FBECDBF8C01CB01F80111821082138202
:100990001282158214824AE0BE016F5F7F4F0E946F
:1009A0008E14BE016F5F7F4FC8010E94AC04629637
:1009B0000FB6F894DEBF0FBECDBFDF91CF911F9170
:1009C0000F9108950F931F93CF93DF93CDB7DEB7A9
:1009D000A1970FB6F894DEBF0FBECDBF8C01CB013F
:1009E000BA01F801118210821382128215821482D8
:1009F0002AE0AE014F5F5F4F0E94AE14BE016F5FF1
:100A00007F4FC8010E94AC04A1960FB6F894DEBFD8
:100A10000FBECDBFDF91CF911F910F910895FC01C3
:100A2000118210821382128215821482FB010190BE
:100A30000020E9F73197AF01461B570B0C948B044C
:100A40008F929F92AF92BF92CF92DF92EF92FF92DE
:100A50000F931F93CF93DF93EC018B01FB01C480B5
:100A6000D580D60111972FEF3FEFB12CA12C90E04C
:100A700080E070E060E0A817B9072CF1461757072F
:100A80002CF1FC0131967F018C159D0560F4F80175
:100A9000808091808114910431F0F401E80FF91FF6
:100AA000E081E03219F0A817B90759F46F5F7F4F62
:100AB0005901FFEFAF1ABF0A9701A817B90709F04C
:100AC0009C01C701D8CF46175707ECF569012A15D5
:100AD0003B0510F0650159016FEA72E0CE010E94FA
:100AE0000F05F801E480F580CE14DF04D8F4AE14CD
:100AF000BF0408F47501F80160817181FB01EE0DFE
:100B0000FF1DB08010826C0D7D1DCE016115710539
:100B1000B9F00E94AC04F80180819181E80EF91EC1
:100B2000F701B082CE01DF91CF911F910F91FF901D
:100B3000EF90DF90CF90BF90AF909F908F900895EF
:100B40000E945404E8CF6FEA72E0CE010E940F05C4
:100B5000E9CFFC0180819181009711F00C9430164F
:100B60000895FB01DC0111961C921E9213961C92B3
:100B70001E92129715961C921E921497861797072D
:100B800049F0608171816115710521F044815581C1
:100B90000C948B040895CF92DF92EF92FF920F9303
:100BA0001F93CF93DF93EB017B0124E0E20EF11C56
:100BB0008B016C01C61AD70AC601800F911F0E94D3
:100BC000FA14F80181938F01EE15FF05A9F7CE0104
:100BD000DF91CF911F910F91FF90EF90DF90CF9019
:100BE00008950F931F93CF93DF938C01EB010E9425
:100BF000FA148883C80101960E94FA148983CE01F1
:100C0000DF91CF911F910F910895FF920F931F9342
:100C1000CF93DF93EC018B01FB01F0800E94FA146B
:100C2000F81621F06F2DCE010E940215F801F18017
:100C30002196CE010E94FA14F81621F06F2DCE01F4
:100C40000E940215C801DF91CF911F910F91FF9073
:100C500008959F92AF92BF92CF92DF92EF92FF9250
:100C60000F931F93CF93DF935C017B018B01D0E047
:100C7000C0E0F80191908F016501CC0EDD1EC60128
:100C80000E94FA14981621F0692DC6010E940215DF
:100C90002196C430D10569F7C701DF91CF911F912B
:100CA0000F91FF90EF90DF90CF90BF90AF909F900B
:100CB00008952F923F924F925F926F927F928F9200
:100CC0009F92AF92BF92CF92DF92EF92FF920F93DB
:100CD0001F93CF93DF93CDB7DEB764970FB6F89429
:100CE000DEBF0FBECDBF8091600490916104891B6F
:100CF0008F7309F42DC30E9473026B017C016FEAAC
:100D000072E0CE010D960E940F050E9473026C19CD
:100D10007D098E099F09643671058105910570F57D
:100D20008091600490916104891B8F7371F30E941C
:100D300073026B017C0190916004809161049817AB
:100D4000D9F0E0916104F0E0E65CFC4F9081809185
:100D500061048F5F80936104803410F0109261040D
:100D600099831A8241E050E0BE016F5F7F4FCE0150
:100D70000D960E942804C9CF9FEFF2CF60EB72E07E
:100D8000CE010D960E94EB03811120C065EB72E04D
:100D9000CE010D960E94EB03811118C06CEB72E03E
:100DA000CE010D960E94EB03811110C061EC72E040
:100DB000CE010D960E94EB03811108C068EC72E031
:100DC000CE010D960E94EB03882361F06D857E8530
:100DD0006115710509F4A8C749895A898AE594E023
:100DE0000E948B046DEC72E08AE594E00E94EB03B4
:100DF000882309F456C030E7E32E32E0F32E10E0EA
:100E000000E0BE01635F7F4FCE0101960E94B105F5
:100E1000A801BE016F5F7F4FCE0107960E9420059B
:100E2000CE0107960E94E003F701619371937F0161
:100E3000CE0107960E94A905CE0101960E94A90540
:100E40000F5F1F4F0C301105E1F60CE010E06091D0
:100E50007C0370917D03660F771F60597D4F8091F1
:100E60007A0390917B0344960E94050680917A0351
:100E700090917B03049690937B0380937A038091F7
:100E80007C0390917D03019690937D0380937C0376
:100E900001501109E1F660EB72E08AE594E00E94EE
:100EA000AC046DED72E08AE594E00E94EB038823C8
:100EB00009F45BC090E4E92E92E0F92E10E000E026
:100EC000BE01635F7F4FCE0101960E94B105A8016C
:100ED000BE016F5F7F4FCE0107960E942005CE01B5
:100EE00007960E94E003F7016193719381939193B8
:100EF0007F01CE0107960E94A905CE0101960E94AE
:100F0000A9050F5F1F4F0C301105D1F60CE010E062
:100F10006091800370918103660F771F660F771FC2
:100F2000605C7D4F80917E0390917F038C5B9F4F2F
:100F30000E94290680917E0390917F0304969093EE
:100F40007F0380937E0380918003909181030196BB
:100F5000909381038093800301501109C9F660EBDF
:100F600072E08AE594E00E94AC046EEE72E08AE5DD
:100F700094E00E94EB03882309F45BC0B0E1EB2E00
:100F8000B2E0FB2E10E000E0BE01635F7F4FCE01B8
:100F900001960E94B105A801BE016F5F7F4FCE018F
:100FA00007960E942005CE0107960E94E003F701F4
:100FB00061937193819391937F01CE0107960E9473
:100FC000A905CE0101960E94A9050F5F1F4F0C30A5
:100FD0001105D1F60CE010E0609184037091850357
:100FE000660F771F660F771F605F7D4F80918203CA
:100FF000909183038C589F4F0E9429068091820311
:10100000909183030496909383038093820380914D
:1010100084039091850301969093850380938403C4
:1010200001501109C9F660EB72E08AE594E00E9474
:10103000AC046FEF72E08AE594E00E94EB03882332
:1010400009F482C1BE01635F7F4FCE0101960E9409
:10105000B10550E040E0BE016F5F7F4FCE010796C3
:101060000E942005CE0107960E94E003709389023A
:1010700060938802CE0107960E94A905CE010196D1
:101080000E94A905BE01635F7F4FCE0101960E94B9
:10109000B10541E050E0BE016F5F7F4FCE01079682
:1010A0000E942005CE0107960E94E00370938D02F6
:1010B00060938C02CE0107960E94A905CE0101968D
:1010C0000E94A905BE01635F7F4FCE0101960E9479
:1010D000B10542E050E0BE016F5F7F4FCE01079641
:1010E0000E942005CE0107960E94E00370939B02A8
:1010F00060939A02CE0107960E94A905CE0101963F
:101100000E94A905BE01635F7F4FCE0101960E9438
:10111000B10543E050E0BE016F5F7F4FCE010796FF
:101120000E942005CE0107960E94E00370938B0277
:1011300060938A02CE0107960E94A905CE0101960E
:101140000E94A905BE01635F7F4FCE0101960E94F8
:10115000B10544E050E0BE016F5F7F4FCE010796BE
:101160000E942005CE0107960E94E00370938F0233
:1011700060938E02CE0107960E94A905CE010196CA
:101180000E94A905BE01635F7F4FCE0101960E94B8
:10119000B10545E050E0BE016F5F7F4FCE0107967D
:1011A0000E942005CE0107960E94E00370939502ED
:1011B00060939402CE0107960E94A905CE01019684
:1011C0000E94A905BE01635F7F4FCE0101960E9478
:1011D000B10546E050E0BE016F5F7F4FCE0107963C
:1011E0000E942005CE0107960E94E00370939102B1
:1011F00060939002CE0107960E94A905CE01019648
:101200000E94A905BE01635F7F4FCE0101960E9437
:10121000B10547E050E0BE016F5F7F4FCE010796FA
:101220000E942005CE0107960E94E003709393026E
:1012300060939202CE0107960E94A905CE01019605
:101240000E94A905BE01635F7F4FCE0101960E94F7
:10125000B10548E050E0BE016F5F7F4FCE010796B9
:101260000E942005CE0107960E94E003709397022A
:1012700060939602CE0107960E94A905CE010196C1
:101280000E94A905BE01635F7F4FCE0101960E94B7
:10129000B10549E050E0BE016F5F7F4FCE01079678
:1012A0000E942005CE0107960E94E0037093CB04B4
:1012B0006093CA04CE0107960E94A905CE0101964B
:1012C0000E94A90568E872E090E080E00E940506AF
:1012D0006AE872E082E090E00E9405066CE872E045
:1012E00084E090E00E9405066EE872E086E090E0FF
:1012F0000E94050660E972E088E090E00E94050621
:1013000062E972E08AE090E00E94050664E972E01A
:101310008CE090E00E9405066AEC74E08EE090E0BC
:101320000E94050666E972E080E190E00E940506F1
:1013300068E972E082E190E00E9405066AE972E0E5
:1013400084E190E00E940506CE010D960E94A90559
:1013500080910A04882309F460C010920A048091E5
:10136000000490910104A0910204B0910304892B20
:101370008A2B8B2B09F451C0409100045091010439
:1013800060910204709103048091170424E0829F0D
:10139000F0011124E050FC4F43875487658776871E
:1013A0008F5F833008F0C5C48093170480910B04CD
:1013B00090910C04A0910D04B0910E04C0900F0404
:1013C000D0901004E0901104F090120440911304A6
:1013D000509114046091150470911604C816D90632
:1013E000EA06FB0608F4CBC4481759076A077B07CF
:1013F00008F4A2C49A01AB01C216D306E406F506AE
:1014000010F4A701960160E076E483EC93E20E9479
:10141000231530931904209318040E944E02009162
:101420000404109105042091060430910704601B08
:10143000710B820B930B613472448F40910520F045
:101440001092190410921804409118045091190434
:1014500070E060E040939203509393036093940391
:10146000709395038090960490909704A0909804B0
:10147000B090990400918E0310918F0330919003E6
:1014800020919103FAE6EF2EF4E0FF2EF70180E0C1
:1014900090E0DC01481559056A057B0508F061C438
:1014A000408051806280738044155505660577053C
:1014B00050F0448055806680778044165506660655
:1014C000770608F04EC40196A11DB11D34968C30EC
:1014D0009105A105B105F1F600938E0310938F03DA
:1014E00030939003209391038EE194E00E94800258
:1014F000882309F497C080917B00877F80937B00CD
:1015000080E480937C0080917A00806480937A00EC
:1015100080917A0086FDFCCF809178004090790020
:10152000542C482E209186033091870340918803E4
:101530005091890370E1C72E72E0D72E0AE914E0BA
:10154000E0E42E2EE2E03E2E1C8B0B8B052C000CD3
:1015500066087708F60181909190A190B1906F0193
:10156000481459046A047B0470F0EB89FC8960819B
:10157000718182819381A30192010E945415A5017A
:1015800094010E9423158B899C8904969C8B8B8BDC
:101590002C143D04F9F6209386033093870340937F
:1015A0008803509389038090C6049090C704A0904C
:1015B000C804B090C904D0908A03C0908B03709186
:1015C0008C0360918D0380E090E0DC0128153905E3
:1015D0004A055B0508F0C9C3F8014080518062806C
:1015E0007380241535054605570550F04480558015
:1015F00066807780421653066406750608F0B5C308
:101600000196A11DB11D0C5F1F4F8C309105A105E6
:10161000B105E1F6D0928A03C0928B0370938C03DC
:1016200060938D038BE494E00E948002882309F488
:10163000D5C060EB72E08AE594E00E94EB0388235A
:1016400009F4CCC080908E0390908F03A0909003FB
:10165000B0909103F401EE0FFF1FE059FD4FA08100
:10166000B181209192033091930340919403509162
:1016700095030E941B15F401EE0FFF1FEE0FFF1FD5
:10168000E659FB4F20813181428153810E9423150D
:10169000E0918A03F0918B03EE0FFF1FEE0FFF1F07
:1016A000E05CFD4F8091CA049091CB04092E000CA0
:1016B000AA0BBB0B80809180A280B380880D991DFE
:1016C000AA1DBB1DBA01A901480F591F6A1F7B1F24
:1016D000CE0107960E94E20469E073E0CE01019614
:1016E0000E940F05BE01695F7F4FCE0101960E94E7
:1016F00078040E9466040E949F01CE0101960E9418
:10170000A905CE0107960E94A90540919203509128
:1017100093036091940370919503CE0107960E9404
:10172000E2046DE073E0CE0101960E940F05BE0158
:10173000695F7F4FCE0101960E9478040E94660483
:101740000E949F01CE0101960E94A905CE01079635
:101750000E94A905409186035091870360918803F8
:1017600070918903CE0107960E94E20462E173E062
:10177000CE0101960E940F05BE01695F7F4FCE0129
:1017800001960E9478040E9466040E949F01CE0187
:1017900001960E94A905CE0107960E94A90568E15D
:1017A00073E0CE0107960E940F056AE173E0CE0157
:1017B00001960E940F05BE01695F7F4FCE01019621
:1017C0000E9478040E9466040E949F01CE01019647
:1017D0000E94A905CE0107960E94A90565EB72E05B
:1017E0008AE594E00E94EB03882309F458C08EE157
:1017F00093E00E94BF03F701419151916191719172
:101800007F01CE0101960E94E204BE016F5F7F4F0F
:10181000CE0107960E94B105CE0107960E9466048C
:101820000E949F01CE0107960E94A905CE01019654
:101830000E94A905FAE9EF16F4E0FF06E1F683E25B
:1018400093E00E94BF0300E712E098E8E92E92E0DF
:10185000F92EF801619171918F01CE0101960E94DC
:10186000B604BE016F5F7F4FCE0107960E94B1059F
:10187000CE0107960E9466040E949F01CE01079642
:101880000E94A905CE0101960E94A905E016F10665
:1018900001F76DEC72E08AE594E00E94AC046CEB19
:1018A00072E08AE594E00E94EB03882309F45BC0B0
:1018B00088E293E00E94BF030AE914E0F801419135
:1018C0005191619171918F01CE0101960E94E204C4
:1018D000BE016F5F7F4FCE0107960E94B105CE011A
:1018E00007960E9466040E949F01CE0107960E94FF
:1018F000A905CE0101960E94A905F4E00A3C1F0744
:10190000E9F683E293E00E94BF0300E412E080E77F
:10191000E82E82E0F82EF801419151916191719188
:101920008F01CE0101960E94E204BE016F5F7F4FDE
:10193000CE0107960E94B105CE0107960E9466046B
:101940000E949F01CE0107960E94A905CE01019633
:101950000E94A905E016F106F1F66DED72E08AE548
:1019600094E00E94AC0461EC72E08AE594E00E948D
:10197000EB03882309F458C088E293E00E94BF0378
:101980000AE914E0F80141915191619171918F013F
:10199000CE0101960E94E204BE016F5F7F4FCE012F
:1019A00007960E94B105CE0107960E9466040E9428
:1019B0009F01CE0107960E94A905CE0101960E94C3
:1019C000A905F4E00A3C1F07E9F68EE293E00E94C5
:1019D000BF0300E112E0F8014191519161917191D1
:1019E0008F01CE0101960E94E204BE016F5F7F4F1E
:1019F000CE0107960E94B105CE0107960E946604AB
:101A00000E949F01CE0107960E94A905CE01019672
:101A10000E94A905F2E000341F07E9F66EEE72E0BD
:101A20008AE594E00E94AC0468EC72E08AE594E0F8
:101A30000E94EB03882309F42CC183E393E00E9406
:101A4000BF036091880270918902CE0101960E94C5
:101A5000B604BE016F5F7F4FCE0107960E94B105AD
:101A6000CE0107960E9466040E949F01CE01079650
:101A70000E94A905CE0101960E94A90560918C02E1
:101A800070918D02CE0101960E94B604BE016F5F77
:101A90007F4FCE0107960E94B105CE0107960E94A6
:101AA00066040E949F01CE0107960E94A905CE01FF
:101AB00001960E94A90560919A0270919B02CE0145
:101AC00001960E94B604BE016F5F7F4FCE0107965C
:101AD0000E94B105CE0107960E9466040E949F01F4
:101AE000CE0107960E94A905CE0101960E94A90584
:101AF00060918A0270918B02CE0101960E94B60419
:101B0000BE016F5F7F4FCE0107960E94B105CE01E7
:101B100007960E9466040E949F01CE0107960E94CC
:101B2000A905CE0101960E94A90560918E027091CF
:101B30008F02CE0101960E94B604BE016F5F7F4FF7
:101B4000CE0107960E94B105CE0107960E94660459
:101B50000E949F01CE0107960E94A905CE01019621
:101B60000E94A9056091940270919502CE010196A0
:101B70000E94B604BE016F5F7F4FCE0107960E94A0
:101B8000B105CE0107960E9466040E949F01CE0116
:101B900007960E94A905CE0101960E94A9056091B1
:101BA000900270919102CE0101960E94B604BE018E
:101BB0006F5F7F4FCE0107960E94B105CE01079659
:101BC0000E9466040E949F01CE0107960E94A9050B
:101BD000CE0101960E94A905609192027091930234
:101BE000CE0101960E94B604BE016F5F7F4FCE0109
:101BF00007960E94B105CE0107960E9466040E94D6
:101C00009F01CE0107960E94A905CE0101960E9470
:101C1000A9056091960270919702CE0101960E94EB
:101C2000B604BE016F5F7F4FCE0107960E94B105DB
:101C3000CE0107960E9466040E949F01CE0107967E
:101C40000E94A905CE0101960E94A9056091CA04CF
:101C50007091CB04CE0101960E94B604BE016F5F65
:101C60007F4FCE0107960E94B105CE0107960E94D4
:101C700066040E949F01CE0107960E94A905CE012D
:101C800001960E94A9056FEF72E08AE594E00E9438
:101C9000AC048CE394E00E948002882319F18091C7
:101CA000960290919702092E000CAA0BBB0B00978D
:101CB000A105B10509F45EC080933104909332040C
:101CC000A0933304B093340481E08093390480936B
:101CD0003A048DE294E00E94DD021092390481E022
:101CE0000E9423028DE294E00E948002882319F072
:101CF00080E00E94230264960FB6F894DEBF0FBE08
:101D0000CDBFDF91CF911F910F91FF90EF90DF90AA
:101D1000CF90BF90AF909F908F907F906F905F908B
:101D20004F903F902F9008958AE594E00E945404CC
:101D300059C8109217043ACB8C159D05AE05BF0506
:101D400068F04C155D056E057F0540F09A01AB010A
:101D500082179307A407B50708F055CB9C01AD0186
:101D600052CB8C013A2F2B2FAECBD82EC92E7A2FE7
:101D70006B2F46CC8DE294E00E94EF02AECF4C1563
:101D80005D056E057F0510F7D701C601E7CF1F92ED
:101D90000F920FB60F9211242F933F938F939F931F
:101DA000AF93BF938091CD049091CE04A091CF04C6
:101DB000B091D0043091CC0423E0230F2D3758F597
:101DC0000196A11DB11D2093CC048093CD04909366
:101DD000CE04A093CF04B093D0048091D10490910D
:101DE000D204A091D304B091D4040196A11DB11DD9
:101DF0008093D1049093D204A093D304B093D404DD
:101E0000BF91AF919F918F913F912F910F900FBEF6
:101E10000F901F90189526E8230F0296A11DB11D63
:101E2000D2CF1F920F920FB60F9211240BB60F92C2
:101E30002F933F934F935F936F937F938F939F93D2
:101E4000AF93BF93EF93FF93E0910E02F0910F02D7
:101E50001995FF91EF91BF91AF919F918F917F91D4
:101E60006F915F914F913F912F910F900BBE0F900B
:101E70000FBE0F901F9018951F920F920FB60F92E2
:101E800011240BB60F922F933F934F935F936F9351
:101E90007F938F939F93AF93BF93EF93FF93E091C3
:101EA0000C02F0910D021995FF91EF91BF91AF9146
:101EB0009F918F917F916F915F914F913F912F9162
:101EC0000F900BBE0F900FBE0F901F9018951F9292
:101ED0000F920FB60F9211240BB60F922F933F93D0
:101EE0004F935F936F937F938F939F93AF93BF9322
:101EF000EF93FF93E0910202F09103021995FF9195
:101F0000EF91BF91AF919F918F917F916F915F9171
:101F10004F913F912F910F900BBE0F900FBE0F90DE
:101F20001F9018951F920F920FB60F9211240BB6A7
:101F30000F922F933F934F935F936F937F938F9362
:101F40009F93AF93BF93EF93FF93E0910002F091C3
:101F500001021995FF91EF91BF91AF919F918F91E0
:101F60007F916F915F914F913F912F910F900BBE99
:101F70000F900FBE0F901F9018951F920F920FB6E3
:101F80000F9211240BB60F922F933F934F935F93B1
:101F90006F937F938F939F93AF93BF93EF93FF9331
:101FA000E0910A02F0910B021995FF91EF91BF9118
:101FB000AF919F918F917F916F915F914F913F91E1
:101FC0002F910F900BBE0F900FBE0F901F90189582
:101FD0001F920F920FB60F9211240BB60F922F93F0
:101FE0003F934F935F936F937F938F939F93AF93A1
:101FF000BF93EF93FF93E0910802F09109021995C6
:10200000FF91EF91BF91AF919F918F917F916F91D0
:102010005F914F913F912F910F900BBE0F900FBE8C
:102020000F901F9018951F920F920FB60F921124C8
:102030000BB60F922F933F934F935F936F937F93C2
:102040008F939F93AF93BF93EF93FF93E09106021B
:10205000F09107021995FF91EF91BF91AF919F9178
:102060008F917F916F915F914F913F912F910F9041
:102070000BBE0F900FBE0F901F9018951F920F92DE
:102080000FB60F9211240BB60F922F933F934F93DD
:102090005F936F937F938F939F93AF93BF93EF93D0
:1020A000FF93E0910402F09105021995FF91EF91E1
:1020B000BF91AF919F918F917F916F915F914F9160
:1020C0003F912F910F900BBE0F900FBE0F901F905E
:1020D00018951F920F920FB60F9211240BB60F9204
:1020E0008F939F93EF93FF93E091F504F0E0EB5211
:1020F000FB4F80818093C6008091F5048F5F8093B1
:10210000F504803210F01092F5049091F60480915D
:10211000F504981305C08091C1008F7D8093C100A4
:10212000FF91EF919F918F910F900BBE0F900FBE7B
:102130000F901F9018951F920F920FB60F921124B7
:102140000BB60F922F938F939F93EF93FF938091F2
:10215000C00082FF0EC08091C600FF91EF919F9159
:102160008F912F910F900BBE0F900FBE0F901F906D
:1021700018959091C600809160048F3381F0809112
:1021800060048F5F20916104281739F3E0916004A7
:10219000F0E0E65CFC4F908380936004DECF80E04B
:1021A000F1CFCF93DF93CDB7DEB766970FB6F89434
:1021B000DEBF0FBECDBF789484B5826084BD84B588
:1021C000816084BD85B5826085BD85B5816085BD32
:1021D00080916E00816080936E00109281008091EA
:1021E0008100826080938100809181008160809372
:1021F0008100809180008160809380008091B10097
:1022000084608093B1008091B00081608093B000C1
:102210008091910082608093910080919100816013
:1022200080939100809190008160809390008091D4
:10223000A10082608093A1008091A10081608093C1
:10224000A1008091A00081608093A0008091210175
:10225000826080932101809121018160809321011E
:102260008091200181608093200180917A008460B8
:1022700080937A0080917A00826080937A008091C6
:102280007A00816080937A0080917A0080688093E0
:102290007A001092C1008AE00E94800186E10E94CB
:1022A00080011092C50080E18093C40082E0809399
:1022B000C00088E98093C10086E08093C20010923C
:1022C0006104109260041092F5041092F6048EE0FE
:1022D00093E0909303028093020280916A008C60E5
:1022E00080936A00ED9A80909A0290909B02A09051
:1022F0009802B09099028091960290919702209155
:10230000CA043091CB04409194025091950260919F
:10231000920270919302E0919002F0919102A0914B
:102320008E02B0918F0200918C0210918D02E0908C
:102330008A02F0908B02C0908802D0908902DE8AD7
:10234000CD8AFC8AEB8A1A8B098BB88BAF87FE8704
:10235000ED877C876B875A87498738872F839E83D1
:102360008D83BC82AB829A828982EAE6F1E0849115
:10237000EAE2F2E00491E4EEF1E01491112309F4B1
:10238000F7C081110E94BC01E12FF0E0EE0FFF1FAA
:10239000E85CFE4FA591B491EC91E02309F4E8C00C
:1023A000BE016B5E7F4F90E080E00E940506BE019B
:1023B0006D5E7F4F82E090E00E940506BE016F5E79
:1023C0007F4F84E090E00E940506BE01615F7F4F71
:1023D00086E090E00E940506BE01635F7F4F88E0C3
:1023E00090E00E940506BE01655F7F4F8AE090E0A5
:1023F0000E940506BE01675F7F4F8CE090E00E945F
:102400000506BE01695F7F4F8EE090E00E940506E1
:10241000BE016B5F7F4F80E190E00E940506BE0128
:102420006D5F7F4F82E190E00E940506BE016F5F05
:102430007F4F84E190E00E9405060CE010E060917F
:10244000680470916904660F771F60597D4F809111
:1024500066049091670444960E94050660916804A2
:1024600070916904660F771F660F771F605C7D4F60
:1024700080916604909167048C5B9F4F0E942906AF
:102480006091680470916904660F771F660F771F6B
:10249000605F7D4F80916604909167048C589F4FD8
:1024A0000E94290680916604909167040496909397
:1024B0006704809366048091680490916904019692
:1024C00090936904809368040150110909F0B7CF13
:1024D00080918802909189026CE070E00E946415FE
:1024E000EAE6F4E0CB0130E020E041E7C42E42E030
:1024F000D42EE12CF12C2115310509F0B6C0C09283
:102500006A04D0926B04E0926C04F0926D042F5F29
:102510003F4F860F971F34962C30310561F780911D
:102520008C0290918D02B9010E946415EAE9F4E0F1
:1025300030E020E090E080E0009709F0A0C0109229
:102540009A0410929B0410929C0410929D04019690
:10255000260F371F34968C30910571F700E010E09C
:102560000E94590601151105D9F30E940000F8CF09
:1025700068E872E090E080E00E94F1056AE872E0AD
:1025800082E090E00E94F1056CE872E084E090E067
:102590000E94F1056EE872E086E090E00E94F1058D
:1025A00060E972E088E090E00E94F10562E972E083
:1025B0008AE090E00E94F10564E972E08CE090E02E
:1025C0000E94F1056AEC74E08EE090E00E94F10553
:1025D00066E972E080E190E00E94F10568E972E04E
:1025E00082E190E00E94F1056AE972E084E190E006
:1025F0000E94F1057CE0C72ED12CE0906404F0909D
:1026000065040091620410916304B701660F771F9F
:1026100060597D4FC80144960E94F1055701AA0CEC
:10262000BB1CAA0CBB1CB501605C7D4FC8018C5B58
:102630009F4F0E94CB05B501605F7D4FC8018C584C
:102640009F4F0E94CB050C5F1F4F109363040093B4
:1026500062048FEFE81AF80AF0926504E0926404CD
:1026600081E0C81AD10849F633CF4C01092E000C7D
:10267000AA08BB0880829182A282B38248CF6901F6
:10268000032E000CEE08FF08C082D182E282F382A2
:102690005ECFCF938091980290919902092E000C01
:1026A000AA0BBB0B10924B0410924C0410924D04D9
:1026B00010924E0410924F04109250041092510444
:1026C0001092520410925304109254041092550424
:1026D0001092560421E0209357041092580420933E
:1026E00059040097A105B10509F4E3C080934F0494
:1026F00090935004A0935104B09352042093580433
:102700008BE494E00E94DD02C1E0C0935904109272
:102710003C0410923D0410923E0410923F0410922B
:10272000400410924104109242041092430410920B
:102730004404109245041092460410924704C0933A
:10274000480410924904C0934A048CE394E00E9428
:10275000EF0210924A0410922D0410922E0410924F
:102760002F0410923004109231041092320410920F
:1027700033041092340410923504109236041092EF
:10278000370410923804C093390410923A04C0936D
:102790003B048DE294E00E94EF0210923B04809192
:1027A0009A0290919B02092E000CAA0BBB0B10926F
:1027B0001E0410921F041092200410922104109203
:1027C00022041092230410922404109225041092E3
:1027D0002604109227041092280410922904C09312
:1027E0002A0410922B04C0932C040097A105B10574
:1027F00009F464C08093220490932304A0932404DA
:10280000B0932504C0932B048EE194E00E94DD0276
:1028100081E080932C0480EA96E8A1E0B0E0809308
:10282000000490930104A0930204B09303040E9457
:102830004E02609304047093050480930604909301
:102840000704109209041092080410920A048CE004
:10285000E2EAF2E0ABE0B4E001900D928A95E1F794
:1028600010921704109219041092180410921A046E
:1028700010921B0410921C0410921D041092FA0373
:102880001092FB031092FC031092FD031092FF03C1
:102890001092FE03E6E9F3E01192119283E0EA3F21
:1028A000F807D1F760EB72E08AE594E0CF910C94E1
:1028B0000F058BE494E00E94EF0226CF8EE194E0B6
:1028C0000E94EF02A5CF8AE594E00C94A9051F931E
:1028D000FC0199278827BC01E89411911032E9F393
:1028E000193010F01E30C8F31B3251F01D3249F47C
:1028F000689406C00E949914610F711D811D911D7D
:10290000119110531A30B0F33EF490958095709564
:1029100061957F4F8F4F9F4F1F910895BB274A307E
:1029200031F4992322F4BDE2909581959F4F0C9448
:10293000D114592F482F372F262F660F771F881F46
:10294000991F660F771F881F991F620F731F841FBF
:10295000951F660F771F881F991F0895BB27FA01DF
:10296000A62F6217710581059105330B30FB66F0C8
:10297000AA27660F771F881F991FAA1FA21710F09A
:10298000A21B63953850A9F7A05DAA3308F0A95D92
:10299000A19336F7B111B1931082CA010C94EA14D5
:1029A000BB27FB015527AA27880F991FAA1FA41729
:1029B00010F0A41B83955051B9F7A05DAA3308F01D
:1029C000A95DA193009779F7B111B1931192CB0151
:1029D0000C94EA14DC01FC01672F71917723E1F775
:1029E000329704C07C916D9370836291AE17BF07DC
:1029F000C8F30895F999FECF92BD81BDF89A992741
:102A000080B50895262FF999FECF1FBA92BD81BDDA
:102A100020BD0FB6F894FA9AF99A0FBE0196089560
:102A20000E944515A59F900DB49F900DA49F800D09
:102A3000911D11240895B7FF0C9410150E941015D4
:102A4000821B930B0895A1E21A2EAA1BBB1BFD014A
:102A50000DC0AA1FBB1FEE1FFF1FA217B307E4077D
:102A6000F50720F0A21BB30BE40BF50B661F771FD5
:102A7000881F991F1A9469F76095709580959095B5
:102A80009B01AC01BD01CF010895A29FB001B39F8E
:102A9000C001A39F700D811D1124911DB29F700D67
:102AA000811D1124911D0895DB018F939F930E9436
:102AB0001015BF91AF91A29F800D911DA39F900D06
:102AC000B29F900D1124089597FB072E16F40094E1
:102AD00007D077FD09D00E94801507FC05D03EF491
:102AE000909581959F4F0895709561957F4F0895BA
:102AF000EE0FFF1F881F8BBF0790F691E02D1994F2
:102B0000AA1BBB1B51E107C0AA1FBB1FA617B70713
:102B100010F0A61BB70B881F991F5A95A9F780952F
:102B20009095BC01CD0108950F931F93CF93DF9330
:102B30008230910510F482E090E0E091F904F09188
:102B4000FA0430E020E0B0E0A0E0309799F42115DD
:102B5000310509F44AC0281B390B24303105D8F55A
:102B60008A819B816115710589F1FB0193838283C1
:102B7000FE0111C04081518102811381481759071C
:102B8000E0F04817590799F4109761F012960C93EA
:102B9000129713961C933296CF01DF91CF911F911C
:102BA0000F9108950093F9041093FA04F4CF2115BE
:102BB000310551F04217530738F0A901DB019A01A2
:102BC000BD01DF01F801C1CFEF01F9CF9093FA0405
:102BD0008093F904CDCFFE01E20FF31F819391930F
:102BE0002250310939832883D7CF2091F7043091BF
:102BF000F804232B41F420919E0230919F023093E0
:102C0000F8042093F70420919C0230919D02211535
:102C1000310541F42DB73EB74091A0025091A10279
:102C2000241B350BE091F704F091F804E217F30749
:102C3000A0F42E1B3F0B2817390778F0AC014E5F2C
:102C40005F4F2417350748F04E0F5F1F5093F8046D
:102C50004093F704819391939FCFF0E0E0E09CCF05
:102C6000CF93DF930097E9F0FC0132971382128231
:102C7000A091F904B091FA04ED0130E020E0109742
:102C8000A1F420813181820F931F2091F7043091AC
:102C9000F8042817390709F061C0F093F804E093AD
:102CA000F704DF91CF910895EA01CE17DF07E8F529
:102CB0004A815B819E0141155105B1F7E901FB8312
:102CC000EA8349915991C40FD51FEC17FD0761F4B0
:102CD000808191810296840F951FE90199838883F1
:102CE000828193819B838A83F0E0E0E012968D914C
:102CF0009C9113970097B9F52D913C911197CD01B7
:102D00000296820F931F2091F7043091F804281740
:102D1000390739F6309751F51092FA041092F904F8
:102D2000B093F804A093F704BCCFD383C28340814F
:102D30005181840F951FC817D90761F44E5F5F4F0B
:102D400088819981480F591F518340838A819B81D3
:102D5000938382832115310509F0B0CFF093FA04F3
:102D6000E093F9049ECFFD01DC01C0CF13821282F3
:102D7000D7CF4F925F926F927F928F929F92AF9236
:102D8000BF92CF92DF92EF92FF920F931F93CF9358
:102D9000DF938C01009799F4CB01DF91CF911F91C4
:102DA0000F91FF90EF90DF90CF90BF90AF909F90EA
:102DB0008F907F906F905F904F900C949415FC01D2
:102DC000E60FF71F9C0122503109E217F30708F4C0
:102DD000AEC0D901CD91DC911197C617D70720F16C
:102DE000C530D10578F0CE0104978617970750F0CB
:102DF000C61BD70B2297C193D1936D937C93CF01C0
:102E00000E943016C801DF91CF911F910F91FF9062
:102E1000EF90DF90CF90BF90AF909F908F907F907A
:102E20006F905F904F9008955B01AC1ABD0A4C0102
:102E30008C0E9D1EA091F904B091FA04512C412CE6
:102E4000F12CE12C109731F58091F7049091F80462
:102E50008815990509F05CC04616570608F058C059
:102E600080919C0290919D02009741F48DB79EB78E
:102E70004091A0025091A102841B950BE817F9071D
:102E800008F055C0F093F804E093F704F90171835A
:102E90006083B8CF8D919C91119712966C90129788
:102EA00013967C901397A815B90559F56C0142E06B
:102EB000C40ED11CCA14DB0420F1AC014A195B0911
:102EC000DA011296159780F06282738251834083F3
:102ED000D9016D937C93E114F10471F0D70113963D
:102EE000FC93EE9312978ECF22968C0F9D1FF901C3
:102EF00091838083F301EFCFF093FA04E093F90418
:102F000081CF4816590608F42C017D01D3019ACFD0
:102F1000CB010E9494157C01009749F0AE01B801E5
:102F20000E949A17C8010E94301687016BCF10E0EB
:102F300000E068CFFB01DC0102C001900D9241501E
:102F40005040D8F70895FB01DC018D910190801964
:102F50000110D9F3990B0895FB01DC0101900D924A
:102F60000020E1F7089511E0CDE2D1E000E006C0D5
:102F7000802FFE010E9478152196011DCE32D107C7
:0A2F800080E00807A9F7F894FFCFDE
:102F8A007F027F027F027F027F027F027F027F022F
:102F9A00010000001E0000008C0000000901000072
:102FAA0036010000C20100004E0200006C0200005F
:102FBA00D20200004D030000BB030000FF03000023
:102FCA000F00000019000000280000003200000075
:102FDA003C00000046000000500000005A000000BB
:102FEA00640000006E000000780000008C00000001
:102FFA000F0023004C0070007C0087009C00B20088
:10300A00C500DE00EB00FA004C1D401F7800681076
:10301A00C80050002003D007F4012C010000FB0473
:10302A008000A0860100A0860100A0860100200081
:10303A00426173650054696D696E670054656D700D
:10304A00004C696E65617200536574740054696D51
:10305A00696E675F52504D5F576169740054696DBC
:10306A00696E675F54454D505F57616974004C69DA
:10307A006E6561725F54454D505F576169740053C4
:10308A004554545F576169740055533A0052504D84
:10309A003A0054454D503A00310050573A005250C8
:1030AA004D2A0054494D2A0054454D502A004C4996
:0A30BA004E2A00534554542A00002A
:00000001FF
