:100000000C942E010C9411070C94E6060C94BB067C
:100010000C9490060C9465060C943A060C940F060A
:100020000C94E4050C945F010C945F010C945F0147
:100030000C945F010C945F010C945F010C945F01C0
:100040000C945F010C945F010C945F010C945F01B0
:100050000C945F010C945F010C945F010C949A0561
:100060000C945F010C946E070C943C070C945F0198
:100070000C945F010C945F010C945F010C945F0180
:100080000C945F010C945F010C945F010C945F0170
:100090000C945F010C945F010C945F010C945F0160
:1000A0000C945F010C945F010C945F010C945F0150
:1000B0000C945F010C945F010C945F010C945F0140
:1000C0000C945F010C945F010C945F010C945F0130
:1000D0000C945F010C945F010C945F010C945F0120
:1000E0000C945F010C9420020C9416020C941B02D9
:1000F0000C94E1010C940E020C94F0010C94F601A6
:100100000C940F030C94DB010C94FA010C94120272
:100110000C9480020C9400020C94ED010C94E90103
:100120000C94490F0C9463100C941C020C9408025C
:100130000C94E5010C94040200002000230026002A
:1001400029002C002F0032000001000003010601ED
:10015000090100000A0B02090C0D0E080703040137
:10016000000000000000000000000000000000008F
:10017000000000000000000000000000000012115C
:10018000100000000000000000000000000000005F
:1001900000000000000000000000220025002800F0
:1001A0002B002E003100340002010000050108017F
:1001B0000B0100002100240027002A002D00300040
:1001C000330001010000040107010A0105050505CE
:1001D000070508080808020202020A0A08080404BF
:1001E00004040101010101010101030303030303ED
:1001F0000303040707070C0C0C0C0C0C0C0C02027C
:10020000020206060606060606060B0B0B0B0B0B78
:100210000B0B010210202008081020401020408005
:1002200002010201080402010102040810204080BA
:100230008040201008040201800402018040201048
:100240000804020108040201010204081020408091
:100250000102040810204080490F631011241FBEC2
:10026000CFEFD1E2DEBFCDBF00E00CBF13E0A0E0D6
:10027000B2E0EAE8F7E200E00BBF02C007900D929F
:10028000A632B107D9F724E0A6E2B3E001C01D927F
:10029000AB3DB207E1F711E0CDE2D1E000E006C0EE
:1002A00021970109802FFE010E947811CC32D107DD
:1002B00080E00807A9F70E94A4070C94B3130C94DC
:1002C00000009091D6049F31C9F09091D6049F5FB1
:1002D0002091D5042917E1F32091D504921769F0F4
:1002E000E091D604F0E0EB54FB4F80839093D6046A
:1002F0008091C10080628093C100089590E0E8CFB2
:10030000089590E0FC01EE5EFD4F249184539E4FD2
:10031000FC018491882399F090E0880F991FFC01DB
:10032000EE54FE4FA591B491FC01E856FE4F859125
:1003300094918FB7F894EC91E22BEC938FBF0895D2
:10034000EF92FF920F931F93CF93DF93FC010481F1
:100350001581C081D1817801EC0EFD1EEC16FD06E1
:1003600021F089910E946101F9CFC801DF91CF91FD
:100370001F910F91FF90EF9008958150823108F006
:100380005AC0E82FF0E08827E753FE4F8F4F0C94B8
:100390007811E901ED01DB01E101E5011B02F0014A
:1003A000F601FA010002040208020E0212021B0208
:1003B00016021C022002809180008F7780938000BB
:1003C0000895809180008F7DF9CF80918000877F94
:1003D000F5CF84B58F7784BD089584B58F7DFBCF2D
:1003E0008091B0008F778093B00008958091B00025
:1003F0008F7DF9CF809190008F7780939000089542
:10040000809190008F7DF9CF80919000877FF5CF0C
:100410008091A0008F778093A00008958091A00024
:100420008F7DF9CF8091A000877FF5CF809120014B
:100430008F77809320010895809120018F7DF9CFDF
:1004400080912001877FF5CF1F93CF93DF93E8E65C
:10045000F1E09491E8E2F2E0D491E2EEF1E0C491AF
:10046000CC23B9F0182F992319F0892F0E94BD01D0
:10047000EC2FF0E0EE0FFF1FE856FE4FA591B49170
:100480008FB7F894EC91111108C0D095DE23DC935E
:100490008FBFDF91CF911F910895DE2BF8CF3FB72B
:1004A000F8948091B1049091B204A091B304B091FA
:1004B000B40426B5A89B05C02F3F19F00196A11DD5
:1004C000B11D3FBFBA2FA92F982F8827BC01CD019E
:1004D000620F711D811D911D42E0660F771F881FFD
:1004E000991F4A95D1F708952FB7F8946091AD04FC
:1004F0007091AE048091AF049091B0042FBF089525
:1005000008954F925F926F927F92BF92CF92DF9247
:10051000EF92FF920F931F93CF93DF93FC01B5846B
:10052000B11010C040E0842FDF91CF911F910F9147
:10053000FF90EF90DF90CF90BF907F906F905F9093
:100540004F900895EC018685882361F10E94740222
:10055000488059806A807B80CC80DD80EE80FF807F
:100560008B019C0104191509260937090C151D0575
:100570002E053F05B8F24C854423E9F08B019C0120
:100580000C191D092E093F094C0C5D1C6E1C7F1CAB
:100590004C145D046E047F0440F4488259826A82E0
:1005A0007B82C1CF0E944F02D3CF40165106620614
:1005B000730650F3F2CF1D864B2DB5CFCF93DF934B
:1005C000EC018E85882349F00E9474026883798348
:1005D0008A839B83DF91CF9108950E944F02F6CFCB
:1005E0000F931F93CF93DF93EC011D868E85882395
:1005F00099F00E947402088119812A813B81601B55
:10060000710B820B930B688779878A879B87DF91B1
:10061000CF911F910F9108950E944F02ECCFCF927E
:10062000DF92EF92FF9280919004909191049C014F
:10063000215031093093910420939004892BD9F5EE
:1006400089E090E090939104809390040E944F027F
:10065000C0908C04D0908D04E0908E04F0908F04B4
:100660006C197D098E099F09609388047093890431
:1006700080938A0490938B048091880490918904DC
:10068000A0918A04B0918B0440918C0450918D0408
:1006900060918E0470918F04840F951FA61FB71F61
:1006A00080938C0490938D04A0938E04B0938F0458
:1006B00081E080939204C0906204D0906304E09043
:1006C0006404F0906504F601EE0FFF1FEC57FD4F38
:1006D000A081B181209184043091850440918604E9
:1006E000509187040E941B11F601EE0FFF1FEE0FC1
:1006F000FF1FEE5CFB4F20813181428153810E94BC
:100700002311E0912E04F0912F04EE0FFF1FEE0F46
:10071000FF1FEC5AFD4F80912C0490912D04092E5F
:10072000000CAA0BBB0BC080D180E280F3808C0D43
:100730009D1DAE1DBF1D820F931FA41FB51F0097E7
:10074000A105B105C1F08093ED039093EE03A09352
:10075000EF03B093F00381E08093F5038093F603F9
:1007600089EE93E00E94DE021092F503FF90EF9075
:10077000DF90CF90089589EE93E00E94F002F4CFCD
:10078000EF92FF920F931F93CF93DF93FC010190A1
:100790000020E9F731978F01081B190BEC017C0150
:1007A000E00EF11ECE15DF0521F089910E94610156
:1007B000F9CFC801DF91CF911F910F91FF90EF907A
:1007C0000895FC0124813581232B39F421E0FB01BC
:1007D0008081882349F020E007C0808191810E94B8
:1007E000A31321E0892BB9F7822F08950F931F934C
:1007F000CF93DF93EC0188819981009759F02A818A
:100800003B812617370730F081E0DF91CF911F91B0
:100810000F9108958B016F5F7F4F0E94B91200976F
:1008200059F0998388831B830A832C813D81232B74
:1008300059F7FC011082E8CF80E0E7CFEF92FF92FA
:100840000F931F93CF93DF936115710541F480E0FF
:10085000DF91CF911F910F91FF90EF900895411577
:100860005105B1F07B01EC010C811D81040F151FB6
:10087000B8010E94F603882351F3288139818C81C5
:100880009D81B701820F931F0E94AC131D830C83BF
:1008900081E0DECFCF93DF93EC01888199810097CF
:1008A00011F00E943012198218821D821C821B8254
:1008B0001A82DF91CF910895CF93DF93EC0141E04D
:1008C00050E06EEA72E00E941E04811103C0CE0166
:1008D0000E944A04CE01DF91CF910895CF93DF9318
:1008E000EC01FB0144815581608171810E941E04ED
:1008F000811103C0CE010E944A04CE01DF91CF9145
:100900000895EF92FF920F931F93CF93DF93EC0123
:100910007B018A01BA010E94F60381110BC0CE014E
:100920000E944A04CE01DF91CF911F910F91FF9059
:10093000EF9008951D830C83B701888199810E94EF
:10094000AC13F0CFFB0101900020E9F73197AF0124
:10095000461B570B0C9481040F931F93CF93DF9387
:10096000CDB7DEB7A1970FB6F894DEBF0FBECDBFEF
:100970008C01CB01BA01F80111821082138212821C
:10098000158214822AE0AE014F5F5F4F0E94AE10C5
:10099000BE016F5F7F4FC8010E94A204A1960FB6EF
:1009A000F894DEBF0FBECDBFDF91CF911F910F91A5
:1009B0000895FB01DC0111961C921E9213961C9265
:1009C0001E92129715961C921E92149786179707DF
:1009D00049F0608171816115710521F04481558173
:1009E0000C9481040895FC011182108213821282FA
:1009F00015821482FB0101900020E9F73197AF01C5
:100A0000461B570B0C948104FC0180819181009757
:100A100011F00C9430120895CF92DF92EF92FF9272
:100A20000F931F93CF93DF93EB017B0124E0E20E42
:100A3000F11C8B016C01C61AD70AC601800F911FE9
:100A40000E94FA10F80181938F01EE15FF05A9F7B6
:100A5000CE01DF91CF911F910F91FF90EF90DF902A
:100A6000CF9008950F931F93CF93DF938C01EB01E9
:100A70000E94FA108883C80101960E94FA108983A7
:100A8000CE01DF91CF911F910F910895FF920F93A7
:100A90001F93CF93DF93EC018B01FB01F0800E9449
:100AA000FA10F81621F06F2DCE010E940211F80104
:100AB000F1802196CE010E94FA10F81621F06F2DD8
:100AC000CE010E940211C801DF91CF911F910F91B9
:100AD000FF9008959F92AF92BF92CF92DF92EF92D4
:100AE000FF920F931F93CF93DF935C017B018B01E8
:100AF000D0E0C0E0F80191908F016501CC0EDD1EC1
:100B0000C6010E94FA10981621F0692DC6010E94B4
:100B100002112196C430D10569F7C701DF91CF9149
:100B20001F910F91FF90EF90DF90CF90BF90AF900B
:100B30009F9008951F920F920FB60F9211242F933A
:100B40003F938F939F93AF93BF938091AD04909108
:100B5000AE04A091AF04B091B0043091AC0423E096
:100B6000230F2D3758F50196A11DB11D2093AC041C
:100B70008093AD049093AE04A093AF04B093B004FF
:100B80008091B1049091B204A091B304B091B404E7
:100B90000196A11DB11D8093B1049093B204A0935E
:100BA000B304B093B404BF91AF919F918F913F91E3
:100BB0002F910F900FBE0F901F90189526E8230FCE
:100BC0000296A11DB11DD2CF1F920F920FB60F92A8
:100BD00011240BB60F922F933F934F935F936F9314
:100BE0007F938F939F93AF93BF93EF93FF93E09186
:100BF0000E02F0910F021995FF91EF91BF91AF9105
:100C00009F918F917F916F915F914F913F912F9124
:100C10000F900BBE0F900FBE0F901F9018951F9254
:100C20000F920FB60F9211240BB60F922F933F9392
:100C30004F935F936F937F938F939F93AF93BF93E4
:100C4000EF93FF93E0910C02F0910D021995FF9143
:100C5000EF91BF91AF919F918F917F916F915F9134
:100C60004F913F912F910F900BBE0F900FBE0F90A1
:100C70001F9018951F920F920FB60F9211240BB66A
:100C80000F922F933F934F935F936F937F938F9325
:100C90009F93AF93BF93EF93FF93E0910202F09184
:100CA00003021995FF91EF91BF91AF919F918F91A1
:100CB0007F916F915F914F913F912F910F900BBE5C
:100CC0000F900FBE0F901F9018951F920F920FB6A6
:100CD0000F9211240BB60F922F933F934F935F9374
:100CE0006F937F938F939F93AF93BF93EF93FF93F4
:100CF000E0910002F09101021995FF91EF91BF91EF
:100D0000AF919F918F917F916F915F914F913F91A3
:100D10002F910F900BBE0F900FBE0F901F90189544
:100D20001F920F920FB60F9211240BB60F922F93B2
:100D30003F934F935F936F937F938F939F93AF9363
:100D4000BF93EF93FF93E0910A02F0910B02199584
:100D5000FF91EF91BF91AF919F918F917F916F9193
:100D60005F914F913F912F910F900BBE0F900FBE4F
:100D70000F901F9018951F920F920FB60F9211248B
:100D80000BB60F922F933F934F935F936F937F9385
:100D90008F939F93AF93BF93EF93FF93E0910802DC
:100DA000F09109021995FF91EF91BF91AF919F9139
:100DB0008F917F916F915F914F913F912F910F9004
:100DC0000BBE0F900FBE0F901F9018951F920F92A1
:100DD0000FB60F9211240BB60F922F933F934F93A0
:100DE0005F936F937F938F939F93AF93BF93EF9393
:100DF000FF93E0910602F09107021995FF91EF91A0
:100E0000BF91AF919F918F917F916F915F914F9122
:100E10003F912F910F900BBE0F900FBE0F901F9020
:100E200018951F920F920FB60F9211240BB60F92C6
:100E30002F933F934F935F936F937F938F939F93E2
:100E4000AF93BF93EF93FF93E0910402F0910502FB
:100E50001995FF91EF91BF91AF919F918F917F91E4
:100E60006F915F914F913F912F910F900BBE0F901B
:100E70000FBE0F901F9018951F920F920FB60F92F2
:100E800011240BB60F928F939F93EF93FF93E091F2
:100E9000D504F0E0EB54FB4F80818093C600809135
:100EA000D5048F5F8093D504803210F01092D50462
:100EB0009091D6048091D504981305C08091C1000B
:100EC0008F7D8093C100FF91EF919F918F910F9043
:100ED0000BBE0F900FBE0F901F9018951F920F9290
:100EE0000FB60F9211240BB60F922F938F939F93EF
:100EF000EF93FF938091C00082FF0EC08091C600E7
:100F0000FF91EF919F918F912F910F900BBE0F90BA
:100F10000FBE0F901F9018959091C6008091D90335
:100F20008F3381F08091D9038F5F2091D8032817E8
:100F300039F3E091D903F0E0E856FC4F90838093B9
:100F4000D903DECF80E0F1CFCF93DF93CDB7DEB70B
:100F5000E8970FB6F894DEBF0FBECDBF789484B586
:100F6000826084BD84B5816084BD85B5826085BDA5
:100F700085B5816085BD80916E00816080936E0033
:100F80001092810080918100826080938100809125
:100F900081008160809381008091800081608093D6
:100FA00080008091B10084608093B1008091B00096
:100FB00081608093B0008091910082608093910065
:100FC0008091910081608093910080919000816078
:100FD000809390008091A10082608093A100809115
:100FE000A10081608093A1008091A0008160809326
:100FF000A0008091210182608093210180912101D4
:101000008160809321018091200181608093200183
:1010100080917A00846080937A0080917A00826067
:1010200080937A0080917A00816080937A00809129
:101030007A00806880937A001092C1008AE00E9452
:10104000810186E10E9481011092C50080E18093B8
:10105000C40082E08093C00088E98093C10086E0EC
:101060008093C2001092D8031092D9031092D50435
:101070001092D6048FE093E09093030280930202D3
:1010800080916A008C6080936A00ED9A80902002C3
:1010900090902102A0901E02B0901F028091220227
:1010A0009091230220912C0430912D0440911C0238
:1010B00050911D0260911A0270911B02E09118027A
:1010C000F0911902A0911602B0911702009114023A
:1010D00010911502E0901202F0901302C0901002DD
:1010E000D0901102DEAACDAAFCAAEBAA1AAB09ABDA
:1010F000B8ABAFA7FEA7EDA77CA76BA75AA749A7D8
:1011000038A72FA39EA38DA3BCA2ABA29AA289A2AB
:10111000EAE6F1E08491EAE2F2E00491E4EEF1E043
:101120001491112309F443C181110E94BD01E12FE3
:10113000F0E0EE0FFF1FE85CFE4FA591B491EC913B
:10114000E02309F434C1BE016B5C7F4F90E080E086
:101150000E944605BE016D5C7F4F82E090E00E94D8
:101160004605BE016F5C7F4F84E090E00E9446051B
:10117000BE01615D7F4F86E090E00E944605BE01A2
:10118000635D7F4F88E090E00E944605BE01655D8B
:101190007F4F8AE090E00E944605BE01675D7F4F69
:1011A0008CE090E00E944605BE01695D7F4F8EE0B5
:1011B00090E00E944605BE016B5D7F4F80E190E0AC
:1011C0000E944605BE016D5D7F4F82E190E00E9466
:1011D0004605BE016F5D7F4F84E190E00E944605A9
:1011E0000CE010E06091960370919703660F771FF3
:1011F0006C577D4F809194039091950344960E9483
:1012000046056091960370919703660F771F660FEE
:10121000771F6C5A7D4F80919403909195038C5B5E
:101220009F4F0E946A056091960370919703660F25
:10123000771F660F771F6C5D7D4F809194039091AF
:1012400095038C589F4F0E946A058091940390915A
:10125000950304969093950380939403809196034D
:101260009091970301969093970380939603015072
:10127000110909F0B7CF80911002909111026CE032
:1012800070E00E946411E2E3F4E0CB0130E020E082
:1012900011E7C12E12E0D12EE12CF12C21153105E0
:1012A00009F002C1C0923204D0923304E0923404B7
:1012B000F09235042F5F3F4F860F971F34962C30E6
:1012C000310561F78091140290911502B9010E94D5
:1012D0006411E8EFF3E030E020E090E080E0009778
:1012E00009F0ECC01092F8031092F9031092FA037F
:1012F0001092FB030196260F371F34968C30910510
:1013000071F7C12CB6E4DB2EB3ECEB2EB3E2FB2E6F
:10131000A8E22A2EA4E03A2E8091D9039091D80316
:10132000891B8F7309F4D6C10E9474024B015C01C2
:101330006FEA72E0CE0149960E94F3040E947402A3
:10134000681979098A099B09643671058105910537
:1013500008F0C0C08091D9039091D803891B8F7386
:1013600069F30E9474024B015C019091D903809152
:10137000D803981709F4ACC0E091D803F0E0E85620
:10138000FC4F90818091D8038F5F8093D803803485
:1013900010F01092D80399831A8241E050E0BE0108
:1013A0006F5F7F4FCE0149960E941E04C7CF60E158
:1013B00072E090E080E00E94320562E172E082E03B
:1013C00090E00E94320564E172E084E090E00E94C7
:1013D000320566E172E086E090E00E94320568E145
:1013E00072E088E090E00E9432056AE172E08AE0F3
:1013F00090E00E9432056CE172E08CE090E00E9487
:1014000032056CE274E08EE090E00E94320562E208
:1014100072E080E190E00E9432056EE172E082E1CC
:1014200090E00E94320560E272E084E190E00E9468
:1014300032052CE0C22ED12CE0909203F090930361
:101440000091900310919103B701660F771F6C57BD
:101450007D4FC80144960E9432055701AA0CBB1C5F
:10146000AA0CBB1CB5016C5A7D4FC8018C5B9F4F09
:101470000E940C05B5016C5D7D4FC8018C589F4FD3
:101480000E940C050C5F1F4F109391030093900373
:101490002FEFE21AF20AF0929303E092920381E0B6
:1014A000C81AD10849F6E7CE4C01092E000CAA084B
:1014B000BB0880829182A282B382FCCE6901032E96
:1014C000000CEE08FF08C082D182E282F38212CFC4
:1014D0009FEF61CF60EB72E0CE0149960E94E1037D
:1014E000811120C065EB72E0CE0149960E94E103B4
:1014F000811118C06CEB72E0CE0149960E94E103A5
:10150000811110C061EC72E0CE0149960E94E103A6
:10151000811108C068EC72E0CE0149960E94E10397
:10152000882361F0698D7A8D6115710509F479C49C
:101530004D8D5E8D86EA94E00E94810468EC72E035
:1015400086EA94E00E94E103882359F0E0EDF7E099
:10155000F8A3EF8FBE01615E7F4F90E080E00E94B4
:1015600046056AEC72E086EA94E00E94E103882373
:1015700099F1F4E8AF2EF2E0BF2E10E000E0BE01DA
:10158000675E7F4FCE0143960E94D904A801BE0139
:101590006D5E7F4FCE0101960E94800189819A8104
:1015A000009709F443C40E946710F5016193719399
:1015B0005F01CE0101960E940405CE0143960E9470
:1015C00004050F5F1F4F0C301105C9F660EB72E088
:1015D00086EA94E00E94A2046AED72E086EA94E052
:1015E0000E94E1038823A9F1E4E5AE2EE2E0BE2EDD
:1015F00010E000E0BE01675E7F4FCE0143960E947F
:10160000D904A801BE016D5E7F4FCE0101960E94F4
:10161000800189819A81009709F40CC40E946710A7
:10162000F50161937193819391935F01CE010196CE
:101630000E940405CE0143960E9404050F5F1F4FD0
:101640000C301105B9F660EB72E086EA94E00E9476
:10165000A2046BEE72E086EA94E00E94E103882324
:10166000A9F174E2A72E72E0B72E10E000E0BE01EF
:10167000675E7F4FCE0143960E94D904A801BE0148
:101680006D5E7F4FCE0101960E94800189819A8113
:10169000009709F4D3C30E946710F5016193719319
:1016A000819391935F01CE0101960E940405CE01C2
:1016B00043960E9404050F5F1F4F0C301105B9F6C9
:1016C00060EB72E086EA94E00E94A204CE014996A3
:1016D0000E94040580919204882309F45EC0109250
:1016E00092048091880490918904A0918A04B09119
:1016F0008B04892B8A2B8B2B09F44FC040918804D3
:101700005091890460918A0470918B0480919F04A8
:1017100024E0829FF0011124E857FB4F4387548750
:10172000658776878F5F833008F08CC380939F0432
:1017300040919304509194046091950470919604A3
:101740008090970490909804A0909904B0909A0487
:1017500080919B0490919C04A0919D04B0919E0463
:1017600084169506A606B70608F489C3841795075C
:10177000A607B70708F469C3A50194018217930768
:10178000A407B50710F49C01AD01C701B6010E9482
:1017900023113093A1042093A0040E944F020091D2
:1017A0008C0410918D0420918E0430918F04601B65
:1017B000710B820B930B613472448F40910520F0C2
:1017C0001092A1041092A0044091A0045091A10491
:1017D00070E060E040938404509385046093860435
:1017E0007093870480905E0490905F04A0906004E2
:1017F000B09061040091620410916304309164041C
:1018000020916504E2E3F4E080E090E0DC0148151B
:1018100059056A057B0508F025C340805180628028
:101820007380441555056605770550F04480558052
:1018300066807780441655066606770608F012C360
:101840000196A11DB11D34968C309105A105B105FD
:10185000F1F60093620410936304309364042093C0
:10186000650485E794E00E948102882309F493C00F
:1018700080917B00877F80937B0080E480937C0055
:1018800080917A00806480937A0080917A0086FD4E
:10189000FCCF8091780040907900542C482E209104
:1018A00028043091290440912A0450912B0404E229
:1018B00012E088EF93E098AF8FAB052C000C660820
:1018C0007708F80181909190A190B1908F01481410
:1018D00059046A047B0470F0EFA9F8AD608171814E
:1018E00082819381A30192010E945411A501940168
:1018F0000E9423118FA998AD049698AF8FABE4E5B1
:10190000F2E0E017F107E9F6209328043093290468
:1019100040932A0450932B04809024049090250433
:10192000A0902604B090270400912E0410912F045B
:101930007091300460913104E8EFF3E080E090E0D2
:10194000DC01281539054A055B0508F08FC2408087
:10195000518062807380241535054605570550F087
:10196000448055806680778042165306640675066B
:1019700008F07CC20196A11DB11D34968C309105F2
:10198000A105B105F1F600932E0410932F04709376
:1019900030046093310486E694E00E94810288233B
:1019A00009F4D5C060EB72E086EA94E00E94E1039E
:1019B000882309F4CCC08090620490906304A090C6
:1019C0006404B0906504F401EE0FFF1FEC57FD4F67
:1019D000A081B181209184043091850440918604D6
:1019E000509187040E941B11F401EE0FFF1FEE0FB0
:1019F000FF1FEE5CFB4F20813181428153810E94A9
:101A00002311E0912E04F0912F04EE0FFF1FEE0F33
:101A1000FF1FEC5AFD4F80912C0490912D04092E4C
:101A2000000CAA0BBB0B80809180A280B380880D34
:101A3000991DAA1DBB1DBA01A901480F591F6A1F94
:101A40007B1FCE0101960E94AC046CEF72E0CE01C8
:101A500043960E94F304BE016F5F7F4FCE01439611
:101A60000E946E040E945C040E94A001CE01439675
:101A70000E940405CE0101960E9404054091840451
:101A8000509185046091860470918704CE0101967F
:101A90000E94AC0460E073E0CE0143960E94F30420
:101AA000BE016F5F7F4FCE0143960E946E040E947D
:101AB0005C040E94A001CE0143960E940405CE0161
:101AC00001960E94040540912804509129046091D8
:101AD0002A0470912B04CE0101960E94AC0465E0AB
:101AE00073E0CE0143960E94F304BE016F5F7F4F07
:101AF000CE0143960E946E040E945C040E94A001E5
:101B0000CE0143960E940405CE0101960E94040571
:101B10006BE073E0CE0101960E94F3046DE073E088
:101B2000CE0143960E94F304BE016F5F7F4FCE014A
:101B300043960E946E040E945C040E94A001CE01A4
:101B400043960E940405CE0101960E94040565EBB0
:101B500072E086EA94E00E94E103882309F466C0FB
:101B600081E193E00E94C00302E314E0F801419197
:101B70005191619171918F01CE0143960E94AC0405
:101B8000BE016D5E7F4FCE0101960E94D904CE0149
:101B900001960E945C040E94A001CE0101960E9461
:101BA0000405CE0143960E940405F4E002361F07A7
:101BB000E9F686E193E00E94C00304E812E0F80130
:101BC000819191918F011C8A1B8A1E8A1D8A188E11
:101BD0001F8A4AE0BE016F5F7F4F0E948E10BE01D8
:101BE0006F5F7F4FCE0143960E94A204BE016D5EDF
:101BF0007F4FCE0101960E94D904CE0101960E942A
:101C00005C040E94A001CE0101960E940405CE0151
:101C100043960E9404058CE992E08017910779F6BB
:101C20006AEC72E086EA94E00E94A2046CEB72E037
:101C300086EA94E00E94E103882309F457C08BE10F
:101C400093E00E94C00308EF13E0F8014191519125
:101C5000619171918F01CE0143960E94AC04BE0147
:101C60006D5E7F4FCE0101960E94D904CE01019690
:101C70000E945C040E94A001CE0101960E9404050E
:101C8000CE0143960E94040520163106F1F686E146
:101C900093E00E94C00304E512E0F80141915191E4
:101CA000619171918F01CE0143960E94AC04BE01F7
:101CB0006D5E7F4FCE0101960E94D904CE01019640
:101CC0000E945C040E94A001CE0101960E940405BE
:101CD000CE0143960E940405F2E004381F07E9F69E
:101CE0006AED72E086EA94E00E94A20461EC72E080
:101CF00086EA94E00E94E103882309F458C08BE14E
:101D000093E00E94C00308EF13E0F8014191519164
:101D1000619171918F01CE0143960E94AC04BE0186
:101D20006D5E7F4FCE0101960E94D904CE010196CF
:101D30000E945C040E94A001CE0101960E9404054D
:101D4000CE0143960E94040520163106F1F681E289
:101D500093E00E94C00304E212E0F8014191519126
:101D6000619171918F01CE0143960E94AC04BE0136
:101D70006D5E7F4FCE0101960E94D904CE0101967F
:101D80000E945C040E94A001CE0101960E940405FD
:101D9000CE0143960E94040584E592E080179107E6
:101DA000E1F66BEE72E086EA94E00E94A20489EE0E
:101DB00093E00E948102882319F180912202909180
:101DC0002302092E000CAA0BBB0B0097A105B1053D
:101DD00009F450C08093DE039093DF03A093E003E7
:101DE000B093E10381E08093E6038093E7038AEDFB
:101DF00093E00E94DE021092E60381E00E9424023A
:101E00008AED93E00E948102882319F080E00E940D
:101E1000240280E090E0892B09F47ECA0E94000031
:101E200077CA86EA94E00E944A0488CB60E070E0BA
:101E3000CB01BBCB60E070E0CB01F2CB60E070E0A7
:101E4000CB012BCC10929F0473CC481559056A0521
:101E50007B05E0F088159905AA05BB05B8F09A0145
:101E6000AB018CCC8C013A2F2B2FEACC8C017A2F32
:101E70006B2F80CD8AED93E00E94F002BCCF8815D5
:101E80009905AA05BB0558F7B501A4019A01AB0154
:101E90007CCCCF9380911E0290911F02092E000CE2
:101EA000AA0BBB0B10926604109267041092680490
:101EB0001092690410926A0410926B0410926C04E0
:101EC00010926D0410926E0410926F0410927004C0
:101ED0001092710421E020937204109273042093F5
:101EE00074040097A105B10509F4E3C080936A0466
:101EF00090936B04A0936C04B0936D0420937304CF
:101F000086E694E00E94DE02C1E0C0937404109261
:101F1000E9031092EA031092EB031092EC03109283
:101F2000ED031092EE031092EF031092F003109263
:101F3000F1031092F2031092F3031092F403C09392
:101F4000F5031092F603C093F70389EE93E00E9425
:101F5000F0021092F7031092DA031092DB03109252
:101F6000DC031092DD031092DE031092DF03109267
:101F7000E0031092E1031092E2031092E303109247
:101F8000E4031092E503C093E6031092E703C093C5
:101F9000E8038AED93E00E94F0021092E80380913A
:101FA000200290912102092E000CAA0BBB0B10926B
:101FB00075041092760410927704109278041092AF
:101FC000790410927A0410927B0410927C0410928F
:101FD0007D0410927E0410927F0410928004C093BE
:101FE000810410928204C09383040097A105B10577
:101FF00009F464C08093790490937A04A0937B04DD
:10200000B0937C04C093820485E794E00E94DE02D2
:1020100081E08093830480EA96E8A1E0B0E08093B9
:10202000880490938904A0938A04B0938B040E943F
:102030004F0260938C0470938D0480938E04909370
:102040008F041092910410929004109292048CE0EC
:10205000E2EAF2E0A3E9B4E001900D928A95E1F79B
:1020600010929F041092A1041092A0041092A20456
:102070001092A3041092A4041092A50410928A0353
:1020800010928B0310928C0310928D0310928F0389
:1020900010928E03E6E2F3E01192119283E0EA38A7
:1020A000F807D1F760EB72E086EA94E0CF910C94E8
:1020B000F30486E694E00E94F00226CF85E794E0E0
:1020C0000E94F002A5CF86EA94E00C9404051F93C9
:1020D000FC0199278827BC01E89411911032E9F39B
:1020E000193010F01E30C8F31B3251F01D3249F484
:1020F000689406C00E949910610F711D811D911D89
:10210000119110531A30B0F33EF49095809570956C
:1021100061957F4F8F4F9F4F1F910895BB274A3086
:1021200031F4992322F4BDE2909581959F4F0C9450
:10213000D110592F482F372F262F660F771F881F52
:10214000991F660F771F881F991F620F731F841FC7
:10215000951F660F771F881F991F0895BB27FA01E7
:10216000A62F6217710581059105330B30FB66F0D0
:10217000AA27660F771F881F991FAA1FA21710F0A2
:10218000A21B63953850A9F7A05DAA3308F0A95D9A
:10219000A19336F7B111B1931082CA010C94EA10E1
:1021A000BB27FB015527AA27880F991FAA1FA41731
:1021B00010F0A41B83955051B9F7A05DAA3308F025
:1021C000A95DA193009779F7B111B1931192CB0159
:1021D0000C94EA10DC01FC01672F71917723E1F781
:1021E000329704C07C916D9370836291AE17BF07E4
:1021F000C8F30895F999FECF92BD81BDF89A992749
:1022000080B50895262FF999FECF1FBA92BD81BDE2
:1022100020BD0FB6F894FA9AF99A0FBE0196089568
:102220000E944511A59F900DB49F900DA49F800D15
:10223000911D11240895B7FF0C9410110E941011E4
:10224000821B930B0895A1E21A2EAA1BBB1BFD0152
:102250000DC0AA1FBB1FEE1FFF1FA217B307E40785
:10226000F50720F0A21BB30BE40BF50B661F771FDD
:10227000881F991F1A9469F76095709580959095BD
:102280009B01AC01BD01CF010895A29FB001B39F96
:10229000C001A39F700D811D1124911DB29F700D6F
:1022A000811D1124911D0895DB018F939F930E943E
:1022B0001011BF91AF91A29F800D911DA39F900D12
:1022C000B29F900D1124089597FB072E16F40094E9
:1022D00007D077FD09D00E94801107FC05D03EF49D
:1022E000909581959F4F0895709561957F4F0895C2
:1022F000EE0FFF1F881F8BBF0790F691E02D1994FA
:10230000AA1BBB1B51E107C0AA1FBB1FA617B7071B
:1023100010F0A61BB70B881F991F5A95A9F7809537
:102320009095BC01CD0108950F931F93CF93DF9338
:102330008230910510F482E090E0E091D904F091B0
:10234000DA0430E020E0B0E0A0E0309799F4211505
:10235000310509F44AC0281B390B24303105D8F562
:102360008A819B816115710589F1FB0193838283C9
:10237000FE0111C040815181028113814817590724
:10238000E0F04817590799F4109761F012960C93F2
:10239000129713961C933296CF01DF91CF911F9124
:1023A0000F9108950093D9041093DA04F4CF211506
:1023B000310551F04217530738F0A901DB019A01AA
:1023C000BD01DF01F801C1CFEF01F9CF9093DA042D
:1023D0008093D904CDCFFE01E20FF31F8193919337
:1023E0002250310939832883D7CF2091D7043091E7
:1023F000D804232B41F420919E0230919F02309308
:10240000D8042093D70420919C0230919D0221157D
:10241000310541F42DB73EB74091A0025091A10281
:10242000241B350BE091D704F091D804E217F30791
:10243000A0F42E1B3F0B2817390778F0AC014E5F34
:102440005F4F2417350748F04E0F5F1F5093D80495
:102450004093D704819391939FCFF0E0E0E09CCF2D
:10246000CF93DF930097E9F0FC0132971382128239
:10247000A091D904B091DA04ED0130E020E010978A
:10248000A1F420813181820F931F2091D7043091D4
:10249000D8042817390709F061C0F093D804E093F5
:1024A000D704DF91CF910895EA01CE17DF07E8F551
:1024B0004A815B819E0141155105B1F7E901FB831A
:1024C000EA8349915991C40FD51FEC17FD0761F4B8
:1024D000808191810296840F951FE90199838883F9
:1024E000828193819B838A83F0E0E0E012968D9154
:1024F0009C9113970097B9F52D913C911197CD01BF
:102500000296820F931F2091D7043091D804281788
:10251000390739F6309751F51092DA041092D90440
:10252000B093D804A093D704BCCFD383C283408197
:102530005181840F951FC817D90761F44E5F5F4F13
:1025400088819981480F591F518340838A819B81DB
:10255000938382832115310509F0B0CFF093DA041B
:10256000E093D9049ECFFD01DC01C0CF138212821B
:10257000D7CF4F925F926F927F928F929F92AF923E
:10258000BF92CF92DF92EF92FF920F931F93CF9360
:10259000DF938C01009799F4CB01DF91CF911F91CC
:1025A0000F91FF90EF90DF90CF90BF90AF909F90F2
:1025B0008F907F906F905F904F900C949411FC01DE
:1025C000E60FF71F9C0122503109E217F30708F4C8
:1025D000AEC0D901CD91DC911197C617D70720F174
:1025E000C530D10578F0CE0104978617970750F0D3
:1025F000C61BD70B2297C193D1936D937C93CF01C8
:102600000E943012C801DF91CF911F910F91FF906E
:10261000EF90DF90CF90BF90AF909F908F907F9082
:102620006F905F904F9008955B01AC1ABD0A4C010A
:102630008C0E9D1EA091D904B091DA04512C412C2E
:10264000F12CE12C109731F58091D7049091D804AA
:102650008815990509F05CC04616570608F058C061
:1026600080919C0290919D02009741F48DB79EB796
:102670004091A0025091A102841B950BE817F90725
:1026800008F055C0F093D804E093D704F9017183A2
:102690006083B8CF8D919C91119712966C90129790
:1026A00013967C901397A815B90559F56C0142E073
:1026B000C40ED11CCA14DB0420F1AC014A195B0919
:1026C000DA011296159780F06282738251834083FB
:1026D000D9016D937C93E114F10471F0D701139645
:1026E000FC93EE9312978ECF22968C0F9D1FF901CB
:1026F00091838083F301EFCFF093DA04E093D90460
:1027000081CF4816590608F42C017D01D3019ACFD8
:10271000CB010E9494117C01009749F0AE01B801F1
:102720000E949A13C8010E94301287016BCF10E0FB
:1027300000E068CFFB01DC0102C001900D92415026
:102740005040D8F70895FB01DC018D91019080196C
:102750000110D9F3990B0895FB01DC0101900D9252
:102760000020E1F7089511E0CDE2D1E000E006C0DD
:10277000802FFE010E9478112196011DCE32D107D3
:0A27800080E00807A9F7F894FFCFE6
:10278A00800280028002800280028002800280022F
:10279A004C1D401F78006810C80050002003F40147
:1027AA002C01D007010000001E0000008C00000070
:1027BA000901000036010000C20100004E020000BB
:1027CA006C020000D20200004D030000BB030000AF
:1027DA00FF0300000F00000019000000280000009D
:1027EA00320000003C0000004600000050000000DB
:1027FA005A000000640000006E000000780000002B
:10280A008C0000000F0023004C0070007C00870041
:10281A009C00B200C500DE00EB00FA000000DB04F9
:10282A008000A0860100A0860100A0860100200089
:10283A00426173650054696D696E670054656D7015
:10284A00004C696E65617200300054696D696E678B
:10285A005F52504D5F576169740054696D696E67C4
:10286A005F54454D505F57616974004C696E6561EC
:10287A00725F54454D505F576169740055533A0071
:10288A0052504D3A0054454D503A00310050573A93
:10289A000052504D2A0054494D2A0054454D502AA1
:0628AA00004C494E2A001B
:00000001FF
