:100000000C9450010C9498110C946D110C944211A5
:100010000C9417110C94EC100C94C1100C949610C5
:100020000C946B100C9481010C9481010C9481014F
:100030000C9481010C9481010C9481010C94810138
:100040000C9481010C9481010C9481010C94810128
:100050000C9481010C9481010C9481010C94211069
:100060000C9481010C94F5110C94C3110C94810132
:100070000C9481010C9481010C9481010C948101F8
:100080000C9481010C9481010C9481010C948101E8
:100090000C9481010C9481010C9481010C948101D8
:1000A0000C9481010C9481010C9481010C948101C8
:1000B0000C9481010C9481010C9481010C948101B8
:1000C0000C9481010C9481010C9481010C948101A8
:1000D0000C9481010C9481010C9481010C94810198
:1000E0000C9481010C94C6020C940A020C94170320
:1000F0000C9477150C94D0020C94AD020C94D80299
:100100000C940E020C9435030C9425020C942B03D2
:100110000C94E4140C9433020C94FE020C947503BA
:100120000C9406020C9421020C94FC010C943F03E5
:100130000C9437020C9441020C942F020C94B202DE
:100140000C943C020C94A6020C9402020C94210321
:100150000C94F4020C9411020C940D030C941702ED
:100160000C943D020C94BC020C94EA020C941B0209
:100170000C94E0020C9404040C942902000020006A
:100180002300260029002C002F003200000100006F
:1001900003010601090100000A0B02090C0D0E08FB
:1001A0000703040100000000000000000000000040
:1001B000000000000000000000000000000000003F
:1001C00000001211100000000000000000000000FC
:1001D00000000000000000000000000000002200FD
:1001E000250028002B002E00310034000201000001
:1001F000050108010B0100002100240027002A004E
:100200002D003000330001010000040107010A0144
:1002100005050505070508080808020202020A0A82
:1002200008080404040401010101010101010303A0
:10023000030303030303040707070C0C0C0C0C0C4B
:100240000C0C0202020206060606060606060B0B48
:100250000B0B0B0B0B0B0102102020080810204089
:10026000102040800201020108040201010204087A
:100270001020408080402010080402018004020108
:100280008040201008040201080402010102040851
:10029000102040800102040810204080E4147715EB
:1002A00011241FBECFEFD1E2DEBFCDBF00E00CBFF7
:1002B00013E0A0E0B2E0E2EBF1E300E00BBF02C02C
:1002C00007900D92A833B107D9F725E0A8E3B3E072
:1002D00001C01D92AC31B207E1F711E0CFE4D1E0EB
:1002E00000E006C021970109802FFE010E948C16B4
:1002F000CE34D10780E00807A9F70E9457120C946A
:10030000C7180C94000090E0FC01EA5AFD4F2491BC
:10031000805F9D4FFC018491882399F090E0880FC5
:10032000991FFC01EA50FE4FA591B491FC01E452E3
:10033000FE4F859194918FB7F894EC91E22BEC935A
:100340008FBF0895909117059F31C9F090911705BF
:100350009F5F209116052917E1F32091160592174A
:1003600069F0E0911705F0E0EA50FB4F808390932D
:1003700017058091C10080628093C100089590E0CC
:10038000E8CFEF92FF920F931F93CF93DF93FC017F
:1003900004811581C081D1817801EC0EFD1EEC161F
:1003A000FD0621F089910E94A201F9CFC801DF91D9
:1003B000CF911F910F91FF90EF900895815082315E
:1003C00008F05AC0E82FF0E08827E651FE4F8F4F23
:1003D0000C948C160A020E02FC01020206023C0278
:1003E000110217021B022102250229022F023302E9
:1003F0003C0237023D024102809180008F7780935A
:1004000080000895809180008F7DF9CF80918000D9
:10041000877FF5CF84B58F7784BD089584B58F7DB0
:10042000FBCF8091B0008F778093B00008958091CA
:10043000B0008F7DF9CF809190008F7780939000EE
:100440000895809190008F7DF9CF80919000877FF3
:10045000F5CF8091A0008F778093A00008958091C0
:10046000A0008F7DF9CF8091A000877FF5CF80918C
:1004700020018F77809320010895809120018F7D46
:10048000F9CF80912001877FF5CF1F93CF93DF9322
:10049000282F30E0F901EA56FE4F8491F901EA5A1B
:1004A000FD4FD491F901E05FFD4FC491CC23A9F039
:1004B000162F81110E94DE01EC2FF0E0EE0FFF1FDE
:1004C000E452FE4FA591B4918FB7F894EC911111BD
:1004D00008C0D095DE23DC938FBFDF91CF911F91B1
:1004E0000895DE2BF8CFCF93DF93EC0188E00E94D4
:1004F0008301209731F460E088E0DF91CF910C9484
:100500004502CF3FD10511F461E0F6CFEEE9F1E00D
:10051000E491E150E23108F0B2C0F0E08827EC56F7
:10052000FD4F8F4F0C948C16A602AD02B202BC0296
:10053000C6023F03D002D802E002EA02F402FE0241
:100540000D0317033F0321032B03350384B5806894
:1005500084BDC7BDDF91CF91089584B5806284BD0D
:10056000C8BDF8CF80918000806880938000D093D0
:100570008900C0938800EECF8091800080628093D4
:100580008000D0938B00C0938A00E4CF80918000DC
:10059000886080938000D0938D00C0938C00DACF68
:1005A0008091B00080688093B000C093B300D2CF38
:1005B0008091B00080628093B000C093B400CACF35
:1005C00080919000806880939000D0939900C093B0
:1005D0009800C0CF80919000806280939000D0936B
:1005E0009B00C0939A00B6CF809190008860809362
:1005F0009000D0939D00C0939C00ACCF8091A00050
:1006000080688093A0008091A0008F7B8093A000E1
:10061000D093A900C093A8009DCF8091A0008062D4
:100620008093A000D093AB00C093AA0093CF809199
:10063000A00088608093A000D093AD00C093AC0070
:1006400089CF80912001806880932001D093290177
:10065000C09328017FCF8091200180628093200188
:10066000D0932B01C0932A0175CF8091200188601F
:1006700080932001D0932D01C0932C016BCFC03803
:10068000D1050CF041CF37CF3FB7F8948091F204F9
:100690009091F304A091F404B091F50426B5A89BC1
:1006A00005C02F3F19F00196A11DB11D3FBFBA2F04
:1006B000A92F982F8827BC01CD01620F711D811DC4
:1006C000911D42E0660F771F881F991F4A95D1F749
:1006D00008952FB7F8946091EE047091EF04809123
:1006E000F0049091F1042FBF089508954F925F9206
:1006F0006F927F92BF92CF92DF92EF92FF920F9311
:100700001F93CF93DF93FC01B584B11010C040E07C
:10071000842FDF91CF911F910F91FF90EF90DF9089
:10072000CF90BF907F906F905F904F900895EC01B5
:100730008685882361F10E946903488059806A8018
:100740007B80CC80DD80EE80FF808B019C010419D2
:100750001509260937090C151D052E053F05B8F2A8
:100760004C854423E9F08B019C010C191D092E09CD
:100770003F094C0C5D1C6E1C7F1C4C145D046E0408
:100780007F0440F4488259826A827B82C1CF0E94F2
:100790004403D3CF401651066206730650F3F2CFDE
:1007A0001D864B2DB5CFCF93DF93EC018E8588232B
:1007B00049F00E946903688379838A839B83DF9170
:1007C000CF9108950E944403F6CF0F931F93CF93C8
:1007D000DF93EC011D868E85882399F00E946903C2
:1007E000088119812A813B81601B710B820B930B5D
:1007F000688779878A879B87DF91CF911F910F91B7
:1008000008950E944403ECCFCF92DF92EF92FF92C3
:1008100080910704909108049C0121503109309384
:10082000080420930704892BD9F589E090E0909380
:100830000804809307040E944403C0900304D090EE
:100840000404E0900504F09006046C197D098E09FB
:100850009F096093FF0370930004809301049093B9
:1008600002048091FF0390910004A0910104B091D3
:1008700002044091030450910404609105047091B6
:100880000604840F951FA61FB71F8093030490933F
:100890000404A0930504B093060481E08093090446
:1008A000C0908C03D0908D03E0908E03F0908F0366
:1008B000F601EE0FFF1FE059FD4FA081B18120919D
:1008C00091033091920340919303509194030E94BD
:1008D0002F16F601EE0FFF1FEE0FFF1FE858FB4F1C
:1008E00020813181428153810E943716E091880333
:1008F000F0918903EE0FFF1FEE0FFF1FE05CFD4F2D
:100900008091EB049091EC04092E000CAA0BBB0B18
:10091000C080D180E280F3808C0D9D1DAE1DBF1D77
:10092000820F931FA41FB51F0097A105B105C1F049
:1009300080934E0490934F04A0935004B0935104BD
:1009400081E080935604809357048AE494E00E94E7
:10095000D30310925604FF90EF90DF90CF9008954C
:100960008AE494E00E94E503F4CFEF92FF920F93A4
:100970001F93CF93DF93FC0101900020E9F731979B
:100980008F01081B190BEC017C01E00EF11ECE1546
:10099000DF0521F089910E94A201F9CFC801DF9102
:1009A000CF911F910F91FF90EF900895FC018081EE
:1009B0009181009711F00C947B1560E070E0CB0101
:1009C0000895FC0124813581232B39F421E0FB01BA
:1009D0008081882349F020E007C0808191810E94B6
:1009E000B71821E0892BB9F7822F08950F931F9331
:1009F000CF93DF93EC0188819981009759F02A8188
:100A00003B812617370730F081E0DF91CF911F91AE
:100A10000F9108958B016F5F7F4F0E94CD17009754
:100A200059F0998388831B830A832C813D81232B72
:100A300059F7FC011082E8CF80E0E7CFEF92FF92F8
:100A40000F931F93CF93DF936115710541F480E0FD
:100A5000DF91CF911F910F91FF90EF900895411575
:100A60005105B1F07B01EC010C811D81040F151FB4
:100A7000B8010E94F604882351F3288139818C81C2
:100A80009D81B701820F931F0E94C0181D830C83A4
:100A900081E0DECFCF93DF93EC01888199810097CD
:100AA00011F00E944417198218821D821C821B8239
:100AB0001A82DF91CF910895CF93DF93EC0141E04B
:100AC00050E06EEA72E00E941E05811103C0CE0163
:100AD0000E944A05CE01DF91CF910895CF93DF9315
:100AE000EC01FB0144815581608171810E941E05EA
:100AF000811103C0CE010E944A05CE01DF91CF9142
:100B00000895EF92FF920F931F93CF93DF93EC0121
:100B10007B018A01BA010E94F60481110BC0CE014B
:100B20000E944A05CE01DF91CF911F910F91FF9056
:100B3000EF9008951D830C83B701888199810E94ED
:100B4000C018F0CFFB0101900020E9F73197AF0109
:100B5000461B570B0C9481050F931F93CF93DF9384
:100B6000CDB7DEB762970FB6F894DEBF0FBECDBF2C
:100B70008C01CB01F801118210821382128215823E
:100B800014824AE0BE016F5F7F4F0E94A215BE0132
:100B90006F5F7F4FC8010E94A20562960FB6F8945E
:100BA000DEBF0FBECDBFDF91CF911F910F91089592
:100BB0000F931F93CF93DF93CDB7DEB7A1970FB6F7
:100BC000F894DEBF0FBECDBF8C01CB01BA01F80196
:100BD0001182108213821282158214822AE0AE01E1
:100BE0004F5F5F4F0E94C215BE016F5F7F4FC8010C
:100BF0000E94A205A1960FB6F894DEBF0FBECDBF2E
:100C0000DF91CF911F910F910895FC011182108205
:100C10001382128215821482FB0101900020E9F7F1
:100C20003197AF01461B570B0C9481058F929F9211
:100C3000AF92BF92CF92DF92EF92FF920F931F93EA
:100C4000CF93DF93EC018B01FB01C480D580D601EB
:100C500011972FEF3FEFB12CA12C90E080E070E0D6
:100C600060E0A817B9072CF1461757072CF1FC01D3
:100C700031967F018C159D0560F4F801808091808C
:100C80008114910431F0F401E80FF91FE081E032A2
:100C900019F0A817B90759F46F5F7F4F5901FFEF9B
:100CA000AF1ABF0A9701A817B90709F09C01C7013D
:100CB000D8CF46175707ECF569012A153B0510F008
:100CC000650159016FEA72E0CE010E940506F80144
:100CD000E480F580CE14DF04D8F4AE14BF0408F429
:100CE0007501F80160817181FB01EE0DFF1DB0807F
:100CF00010826C0D7D1DCE0161157105B9F00E9449
:100D0000A205F80180819181E80EF91EF701B082F9
:100D1000CE01DF91CF911F910F91FF90EF90DF9067
:100D2000CF90BF90AF909F908F9008950E944A05FA
:100D3000E8CF6FEA72E0CE010E940506E9CFFC0120
:100D400080819181009711F00C9444170895FB0164
:100D5000DC0111961C921E9213961C921E92129701
:100D600015961C921E9214978617970749F060817A
:100D700071816115710521F0448155810C948105C3
:100D80000895CF92DF92EF92FF920F931F93CF932C
:100D9000DF93EB017B0124E0E20EF11C8B016C017F
:100DA000C61AD70AC601800F911F0E940E16F801BD
:100DB00081938F01EE15FF05A9F7CE01DF91CF9149
:100DC0001F910F91FF90EF90DF90CF9008950F93B8
:100DD0001F93CF93DF938C01EB010E940E16888343
:100DE000C80101960E940E168983CE01DF91CF9132
:100DF0001F910F910895FF920F931F93CF93DF934D
:100E0000EC018B01FB01F0800E940E16F81621F018
:100E10006F2DCE010E941616F801F1802196CE01A9
:100E20000E940E16F81621F06F2DCE010E941616A4
:100E3000C801DF91CF911F910F91FF9008959F926C
:100E4000AF92BF92CF92DF92EF92FF920F931F93D8
:100E5000CF93DF935C017B018B01D0E0C0E0F80110
:100E600091908F016501CC0EDD1EC6010E940E1609
:100E7000981621F0692DC6010E9416162196C430DD
:100E8000D10569F7C701DF91CF911F910F91FF90B5
:100E9000EF90DF90CF90BF90AF909F9008952F92EA
:100EA0003F924F925F926F927F928F929F92AF92FA
:100EB000BF92CF92DF92EF92FF920F931F93CF9347
:100EC000DF93CDB7DEB762970FB6F894DEBF0FBEE3
:100ED000CDBF80916E0490916F04891B8F7309F4CC
:100EE0003FC30E9469036B017C016FEA72E0CE018F
:100EF0000D960E9405060E9469036C197D098E09F2
:100F00009F09643671058105910570F580916E0425
:100F100090916F04891B8F7371F30E9469036B01B9
:100F20007C0190916E0480916F049817D9F0E09144
:100F30006F04F0E0E85CFC4F908180916F048F5F5C
:100F400080936F04803410F010926F0499831A829A
:100F500041E050E0BE016F5F7F4FCE010D960E94D1
:100F60001E05C9CF9FEFF2CF60EB72E0CE010D9668
:100F70000E94E104811120C065EB72E0CE010D9664
:100F80000E94E104811118C06CEB72E0CE010D9655
:100F90000E94E104811110C061EC72E0CE010D9657
:100FA0000E94E104811108C068EC72E0CE010D9648
:100FB0000E94E104882369F06D857E8561157105C5
:100FC00011F40C94F20F49895A8988E694E00E9442
:100FD00081056DEC72E088E694E00E94E1048823CC
:100FE00009F456C090E7E92E92E0F92E10E000E0F7
:100FF000BE01635F7F4FCE0101960E94A706A80144
:10100000BE016F5F7F4FCE0107960E941606CE018C
:1010100007960E94D604F701619371937F01CE0178
:1010200007960E949F06CE0101960E949F060F5FC1
:101030001F4F0C301105E1F60CE010E060917A03CF
:1010400070917B03660F771F60597D4F8091780305
:101050009091790344960E94FB06809178039091C9
:1010600079030496909379038093780380917A03AF
:1010700090917B03019690937B0380937A030150B8
:101080001109E1F660EB72E088E694E00E94A205A7
:101090006DED72E088E694E00E94E104882309F493
:1010A0005BC010E4E12E12E0F12E10E000E0BE0182
:1010B000635F7F4FCE0101960E94A706A801BE0183
:1010C0006F5F7F4FCE0107960E941606CE010796EE
:1010D0000E94D604F70161937193819391937F01EC
:1010E000CE0107960E949F06CE0101960E949F06A0
:1010F0000F5F1F4F0C301105D1F60CE010E060912E
:101100007E0370917F03660F771F660F771F605C09
:101110007D4F80917C0390917D038C5B9F4F0E945B
:101120001F0780917C0390917D03049690937D032B
:1011300080937C0380917E0390917F03019690932E
:101140007F0380937E0301501109C9F660EB72E0C2
:1011500088E694E00E94A2056EEE72E088E694E0D4
:101160000E94E104882309F45BC0A0E1EA2EA2E01A
:10117000FA2E10E000E0BE01635F7F4FCE010196C2
:101180000E94A706A801BE016F5F7F4FCE010796A0
:101190000E941606CE0107960E94D604F7016193BD
:1011A0007193819391937F01CE0107960E949F06D0
:1011B000CE0101960E949F060F5F1F4F0C30110554
:1011C000D1F60CE010E06091820370918303660F0A
:1011D000771F660F771F605F7D4F8091800390912E
:1011E00081038C589F4F0E941F078091800390912C
:1011F00081030496909381038093800380918203FE
:10120000909183030196909383038093820301500E
:101210001109C9F660EB72E088E694E00E94A2052D
:101220006FEF72E088E694E00E94E104882309F4FD
:1012300093C1BE01635F7F4FCE0101960E94A70656
:1012400050E040E0BE016F5F7F4FCE0107960E94E5
:101250001606CE0107960E94D60470938902609309
:101260008802CE0107960E949F06CE0101960E9439
:101270009F06BE01635F7F4FCE0101960E94A706C5
:1012800041E050E0BE016F5F7F4FCE0107960E94A4
:101290001606CE0107960E94D60470938D026093C5
:1012A0008C02CE0107960E949F06CE0101960E94F5
:1012B0009F06BE01635F7F4FCE0101960E94A70685
:1012C00042E050E0BE016F5F7F4FCE0107960E9463
:1012D0001606CE0107960E94D60470939B02609377
:1012E0009A02CE0107960E949F06CE0101960E94A7
:1012F0009F06BE01635F7F4FCE0101960E94A70645
:1013000043E050E0BE016F5F7F4FCE0107960E9421
:101310001606CE0107960E94D60470938B02609346
:101320008A02CE0107960E949F06CE0101960E9476
:101330009F06BE01635F7F4FCE0101960E94A70604
:1013400044E050E0BE016F5F7F4FCE0107960E94E0
:101350001606CE0107960E94D60470938F02609302
:101360008E02CE0107960E949F06CE0101960E9432
:101370009F06BE01635F7F4FCE0101960E94A706C4
:1013800045E050E0BE016F5F7F4FCE0107960E949F
:101390001606CE0107960E94D604709395026093BC
:1013A0009402CE0107960E949F06CE0101960E94EC
:1013B0009F06BE01635F7F4FCE0101960E94A70684
:1013C00046E050E0BE016F5F7F4FCE0107960E945E
:1013D0001606CE0107960E94D60470939102609380
:1013E0009002CE0107960E949F06CE0101960E94B0
:1013F0009F06BE01635F7F4FCE0101960E94A70644
:1014000047E050E0BE016F5F7F4FCE0107960E941C
:101410001606CE0107960E94D6047093930260933D
:101420009202CE0107960E949F06CE0101960E946D
:101430009F06BE01635F7F4FCE0101960E94A70603
:1014400048E050E0BE016F5F7F4FCE0107960E94DB
:101450001606CE0107960E94D604709397026093F9
:101460009602CE0107960E949F06CE0101960E9429
:101470009F06BE01635F7F4FCE0101960E94A706C3
:1014800049E050E0BE016F5F7F4FCE0107960E949A
:101490001606CE0107960E94D6047093EC04609362
:1014A000EB04CE0107960E949F06CE0101960E9492
:1014B0009F0600918E0210918F028AE00E948301A4
:1014C0001093DB040093DA0488EC90E09093D90445
:1014D0008093D80468E872E090E080E00E94FB0608
:1014E0006AE872E082E090E00E94FB066CE872E03D
:1014F00084E090E00E94FB066EE872E086E090E0F7
:101500000E94FB0660E972E088E090E00E94FB0622
:1015100062E972E08AE090E00E94FB0664E972E012
:101520008CE090E00E94FB066BEE74E08EE090E0B1
:101530000E94FB0666E972E080E190E00E94FB06F3
:1015400068E972E082E190E00E94FB066AE972E0DD
:1015500084E190E00E94FB06CE010D960E949F065A
:1015600080910904882309F460C0109209048091D5
:10157000FF0390910004A0910104B0910204892B13
:101580008A2B8B2B09F451C04091FF03509100042A
:1015900060910104709102048091160424E0829FFE
:1015A000F0011124E150FC4F43875487658776870B
:1015B0008F5F833008F01CC58093160440910A04A5
:1015C00050910B0460910C0470910D04C0900E04B6
:1015D000D0900F04E0901004F09011048091120458
:1015E00090911304A0911404B0911504C416D5066B
:1015F000E606F70608F41DC584179507A607B70782
:1016000008F4F9C4A701960182179307A407B50748
:1016100010F49C01AD0160E076E483EC93E20E945B
:10162000371630931804209317040E944403009146
:101630000304109104042091050430910604601BFA
:10164000710B820B930B613472448F40910520F033
:101650001092180410921704409117045091180426
:1016600070E060E040939103509392036093930382
:10167000709394038090A4049090A504A090A60475
:10168000B090A704E0908C03F0908D0330918E030E
:1016900020918F0308E714E0F80180E090E0DC017E
:1016A000481559056A057B0508F0B5C4408051808E
:1016B00062807380441555056605770550F04480B7
:1016C000558066807780441655066606770608F0D2
:1016D000A2C40196A11DB11D34968C309105A105BF
:1016E000B105F1F6E0928C03F0928D0330938E03F6
:1016F00020938F038CE294E00E947603882309F400
:1017000094C080917B00877F80937B0080E48093EE
:101710007C0080917A00806480937A0080917A00C6
:1017200086FDFCCF8091780040907900542C482EA3
:101730002091840330918503409186035091870363
:1017400070E1C72E72E0D72EE8EAEE2EE4E0FE2E1E
:101750001701052C000C66087708F601819091901E
:10176000A190B1906F01481459046A047B0468F099
:10177000F1016081718182819381A30192010E94B4
:101780006816A50194010E943716F4E02F0E311C53
:1017900080E4C81682E0D80601F7209384033093D2
:1017A000850340938603509387034090D404509060
:1017B000D5046090D6047090D704D0908803C09070
:1017C000890370918A0360918B0380E090E0DC01D3
:1017D000241535054605570508F021C4F70180801A
:1017E0009180A280B380281539054A055B0550F029
:1017F00084809580A680B78082169306A406B506DD
:1018000008F00DC40196A11DB11DF4E0EF0EF11C0E
:101810008C309105A105B105D9F6D0928803C0920C
:10182000890370938A0360938B038DE194E00E9497
:101830007603882309F443C0F09090038091DA0482
:101840009091DB042091D8043091D9044090910309
:10185000509092036090930370909403AC01420FF8
:10186000531F052E000C660B770B441655066606B3
:10187000770618F041E040939003821B930B092EEA
:10188000000CAA0BBB0B84159505A605B70510F037
:1018900010929003E09090036E2D80E00E9445022C
:1018A000FE1469F081E08093E9048CED94E00E94DD
:1018B000D30380919002909191020E9473028CED6B
:1018C00094E00E947603882331F0809192029091F7
:1018D00093020E94730289E594E00E9476038823B4
:1018E00009F4D6C060EB72E088E694E00E94E1045F
:1018F000882309F4CDC0C0908C03D0908D03E09074
:101900008E03F0908F03F601EE0FFF1FE059FD4F9D
:10191000A081B18120919103309192034091930372
:10192000509194030E942F16F601EE0FFF1FEE0F49
:10193000FF1FE858FB4F20813181428153810E9473
:101940003716E0918803F0918903EE0FFF1FEE0F29
:10195000FF1FE05CFD4F8091EB049091EC04092E99
:10196000000CAA0BBB0BC080D180E280F3808C0DF1
:101970009D1DAE1DBF1DBA01A901480F591F6A1F49
:101980007B1FCE0107960E94D80569E073E0CE0167
:1019900001960E940506BE01695F7F4FCE01019648
:1019A0000E946E050E945C050E94C101CE01019655
:1019B0000E949F06CE0107960E949F0640919103C8
:1019C000509192036091930370919403CE01079616
:1019D0000E94D8056DE073E0CE0101960E940506D5
:1019E000BE01695F7F4FCE0101960E946E050E9485
:1019F0005C050E94C101CE0101960E949F06CE01A6
:101A000007960E949F064091840350918503609140
:101A1000860370918703CE0107960E94D80562E184
:101A200073E0CE0101960E940506BE01695F7F4FFB
:101A3000CE0101960E946E050E945C050E94C101C4
:101A4000CE0101960E949F06CE0107960E949F0636
:101A50006091900370E0CE0107960E94AC0568E1AA
:101A600073E0CE0101960E940506BE01695F7F4FBB
:101A7000CE0101960E946E050E945C050E94C10184
:101A8000CE0101960E949F06CE0107960E949F06F6
:101A900065EB72E088E694E00E94E104882309F493
:101AA00057C08CE193E00E94B504F8014191519137
:101AB000619171918F01CE0101960E94D805BE01FE
:101AC0006F5F7F4FCE0107960E94A706CE01079653
:101AD0000E945C050E94C101CE0107960E949F06EC
:101AE000CE0101960E949F06F4E0083A1F07E9F62E
:101AF00081E293E00E94B50400E712E028E8E22EBC
:101B000022E0F22EF801619171918F01CE010196D0
:101B10000E94AC05BE016F5F7F4FCE0107960E9409
:101B2000A706CE0107960E945C050E94C101CE0166
:101B300007960E949F06CE0101960E949F06E0161E
:101B4000F10601F76DEC72E088E694E00E94A205D0
:101B50006CEB72E088E694E00E94E104882309F4CB
:101B60005BC086E293E00E94B50408EA14E0F80145
:101B700041915191619171918F01CE0101960E9425
:101B8000D805BE016F5F7F4FCE0107960E94A70662
:101B9000CE0107960E945C050E94C101CE01079606
:101BA0000E949F06CE0101960E949F06F4E0083D28
:101BB0001F07E9F681E293E00E94B50400E412E019
:101BC00090E7E92E92E0F92EF8014191519161914F
:101BD00071918F01CE0101960E94D805BE016F5F01
:101BE0007F4FCE0107960E94A706CE0107960E945E
:101BF0005C050E94C101CE0107960E949F06CE019E
:101C000001960E949F06E016F106F1F66DED72E076
:101C100088E694E00E94A20561EC72E088E694E018
:101C20000E94E104882309F45BC086E293E00E94ED
:101C3000B50408EA14E088EDE82E84E0F82EF801F7
:101C400041915191619171918F01CE0101960E9454
:101C5000D805BE016F5F7F4FCE0107960E94A70691
:101C6000CE0107960E945C050E94C101CE01079635
:101C70000E949F06CE0101960E949F06E016F10683
:101C8000F1F68CE293E00E94B50400E112E0F80165
:101C900041915191619171918F01CE0101960E9404
:101CA000D805BE016F5F7F4FCE0107960E94A70641
:101CB000CE0107960E945C050E94C101CE010796E5
:101CC0000E949F06CE0101960E949F06F2E000341A
:101CD0001F07E9F66EEE72E088E694E00E94A20526
:101CE00068EC72E088E694E00E94E104882309F43D
:101CF0002CC181E393E00E94B50460918802709149
:101D00008902CE0101960E94AC05BE016F5F7F4F34
:101D1000CE0107960E94A706CE0107960E945C0599
:101D20000E94C101CE0107960E949F06CE01019636
:101D30000E949F0660918C0270918D02CE010196E7
:101D40000E94AC05BE016F5F7F4FCE0107960E94D7
:101D5000A706CE0107960E945C050E94C101CE0134
:101D600007960E949F06CE0101960E949F066091F1
:101D70009A0270919B02CE0101960E94AC05BE01B1
:101D80006F5F7F4FCE0107960E94A706CE01079690
:101D90000E945C050E94C101CE0107960E949F0629
:101DA000CE0101960E949F0660918A0270918B027B
:101DB000CE0101960E94AC05BE016F5F7F4FCE0140
:101DC00007960E94A706CE0107960E945C050E9416
:101DD000C101CE0107960E949F06CE0101960E9486
:101DE0009F0660918E0270918F02CE0101960E9433
:101DF000AC05BE016F5F7F4FCE0107960E94A7061C
:101E0000CE0107960E945C050E94C101CE01079693
:101E10000E949F06CE0101960E949F066091940247
:101E200070919502CE0101960E94AC05BE016F5FD4
:101E30007F4FCE0107960E94A706CE0107960E940B
:101E40005C050E94C101CE0107960E949F06CE014B
:101E500001960E949F066091900270919102CE01BE
:101E600001960E94AC05BE016F5F7F4FCE010796C1
:101E70000E94A706CE0107960E945C050E94C10140
:101E8000CE0107960E949F06CE0101960E949F06F2
:101E90006091920270919302CE0101960E94AC056E
:101EA000BE016F5F7F4FCE0107960E94A706CE014D
:101EB00007960E945C050E94C101CE0107960E9410
:101EC0009F06CE0101960E949F0660919602709136
:101ED0009702CE0101960E94AC05BE016F5F7F4F55
:101EE000CE0107960E94A706CE0107960E945C05C8
:101EF0000E94C101CE0107960E949F06CE01019665
:101F00000E949F066091EB047091EC04CE01019653
:101F10000E94AC05BE016F5F7F4FCE0107960E9405
:101F2000A706CE0107960E945C050E94C101CE0162
:101F300007960E949F06CE0101960E949F066FEFB2
:101F400072E088E694E00E94A2058AE494E00E9490
:101F50007603882321F18091960290919702092EB1
:101F6000000CAA0BBB0B0097A105B10509F45CC0DE
:101F700080933F0490934004A0934104B0934204A3
:101F800081E080934704809348048BE394E00E94AF
:101F9000D3031092470461E086E10E9445028BE37F
:101FA00094E00E947603882321F060E086E10E949D
:101FB000450262960FB6F894DEBF0FBECDBFDF912B
:101FC000CF911F910F91FF90EF90DF90CF90BF9036
:101FD000AF909F908F907F906F905F904F903F90C9
:101FE0002F90089588E694E00E944A050C94E90732
:101FF00010921604E3CA4C155D056E057F0528F0A6
:102000008C159D05AE05BF0518F49A01AB0103CBF5
:102010009A01AB01F9CA7C013A2F2B2F5ACBD82E4B
:10202000C92E7A2F6B2FEECB8BE394E00E94E50351
:10203000B0CF8C159D05AE05BF0550F7B701A601C1
:10204000E4CF1F920F920FB60F9211242F933F935C
:102050008F939F93AF93BF938091EE049091EF0481
:10206000A091F004B091F1043091ED0423E0230F2E
:102070002D3758F50196A11DB11D2093ED048093D5
:10208000EE049093EF04A093F004B093F1048091D8
:10209000F2049091F304A091F404B091F504019638
:1020A000A11DB11D8093F2049093F304A093F40456
:1020B000B093F504BF91AF919F918F913F912F9174
:1020C0000F900FBE0F901F90189526E8230F0296D1
:1020D000A11DB11DD2CF1F920F920FB60F921124E6
:1020E0000BB60F922F933F934F935F936F937F9312
:1020F0008F939F93AF93BF93EF93FF93E0910E0263
:10210000F0910F021995FF91EF91BF91AF919F91BF
:102110008F917F916F915F914F913F912F910F9090
:102120000BBE0F900FBE0F901F9018951F920F922D
:102130000FB60F9211240BB60F922F933F934F932C
:102140005F936F937F938F939F93AF93BF93EF931F
:10215000FF93E0910C02F0910D021995FF91EF9120
:10216000BF91AF919F918F917F916F915F914F91AF
:102170003F912F910F900BBE0F900FBE0F901F90AD
:1021800018951F920F920FB60F9211240BB60F9253
:102190002F933F934F935F936F937F938F939F936F
:1021A000AF93BF93EF93FF93E0910202F09103028C
:1021B0001995FF91EF91BF91AF919F918F917F9171
:1021C0006F915F914F913F912F910F900BBE0F90A8
:1021D0000FBE0F901F9018951F920F920FB60F927F
:1021E00011240BB60F922F933F934F935F936F93EE
:1021F0007F938F939F93AF93BF93EF93FF93E09160
:102200000002F09101021995FF91EF91BF91AF91FA
:102210009F918F917F916F915F914F913F912F91FE
:102220000F900BBE0F900FBE0F901F9018951F922E
:102230000F920FB60F9211240BB60F922F933F936C
:102240004F935F936F937F938F939F93AF93BF93BE
:10225000EF93FF93E0910A02F0910B021995FF9121
:10226000EF91BF91AF919F918F917F916F915F910E
:102270004F913F912F910F900BBE0F900FBE0F907B
:102280001F9018951F920F920FB60F9211240BB644
:102290000F922F933F934F935F936F937F938F93FF
:1022A0009F93AF93BF93EF93FF93E0910802F09158
:1022B00009021995FF91EF91BF91AF919F918F9175
:1022C0007F916F915F914F913F912F910F900BBE36
:1022D0000F900FBE0F901F9018951F920F920FB680
:1022E0000F9211240BB60F922F933F934F935F934E
:1022F0006F937F938F939F93AF93BF93EF93FF93CE
:10230000E0910602F09107021995FF91EF91BF91BC
:10231000AF919F918F917F916F915F914F913F917D
:102320002F910F900BBE0F900FBE0F901F9018951E
:102330001F920F920FB60F9211240BB60F922F938C
:102340003F934F935F936F937F938F939F93AF933D
:10235000BF93EF93FF93E0910402F091050219956A
:10236000FF91EF91BF91AF919F918F917F916F916D
:102370005F914F913F912F910F900BBE0F900FBE29
:102380000F901F9018951F920F920FB60F92112465
:102390000BB60F928F939F93EF93FF93E0911605E7
:1023A000F0E0EA50FB4F80818093C60080911605D3
:1023B0008F5F80931605803210F010921605909171
:1023C000170580911605981305C08091C1008F7D77
:1023D0008093C100FF91EF919F918F910F900BBE61
:1023E0000F900FBE0F901F9018951F920F920FB66F
:1023F0000F9211240BB60F922F938F939F93EF930D
:10240000FF938091C00082FF0EC08091C600FF91B3
:10241000EF919F918F912F910F900BBE0F900FBE58
:102420000F901F9018959091C60080916E048F3385
:1024300081F080916E048F5F20916F04281739F32B
:10244000E0916E04F0E0E85CFC4F908380936E04B2
:10245000DECF80E0F1CF1F93CF93DF93EC01162FF7
:10246000188219821A821B821C821D821E821F8280
:10247000188619861A861B8681E08C871D868E87B2
:10248000211531054105510571F02C833D834E83A3
:102490005F838D87CE010E94D30311701E87DF9169
:1024A000CF911F910895CE010E94E503F6CFCF93FF
:1024B000DF93CDB7DEB766970FB6F894DEBF0FBED9
:1024C000CDBF789484B5826084BD84B5816084BDBD
:1024D00085B5826085BD85B5816085BD80916E00C2
:1024E000816080936E0010928100809181008260F3
:1024F0008093810080918100816080938100809130
:1025000080008160809380008091B100846080931E
:10251000B1008091B00081608093B0008091910003
:1025200082608093910080919100816080939100FE
:10253000809190008160809390008091A1008260E2
:102540008093A1008091A10081608093A10080917F
:10255000A00081608093A00080912101826080931F
:1025600021018091210181608093210180912001CE
:1025700081608093200180917A00846080937A004A
:1025800080917A00826080937A0080917A008160E5
:1025900080937A0080917A00806880937A0010920C
:1025A000C10088E00E94830186E10E9483011092AD
:1025B000C50080E18093C40082E08093C00088E978
:1025C0008093C10086E08093C20010926F04109245
:1025D0006E04109216051092170584E094E0909313
:1025E00003028093020280916A008C6080936A00EB
:1025F000ED9A80909A0290909B02A0909802B090E1
:10260000990280919602909197022091EB0430916B
:10261000EC04409194025091950260919202709165
:102620009302E0919002F0919102A0918E02B091FC
:102630008F0200918C0210918D02E0908A02F0903E
:102640008B02C0908802D0908902DE8ACD8AFC8AF3
:10265000EB8A1A8B098BB88BAF87FE87ED877C8757
:102660006B875A87498738872F839E838D83BC82E7
:10267000AB829A828982EEEAF1E08491EEE6F2E0A2
:102680000491E8E2F2E01491112309F40CC18111E4
:102690000E94DE01E12FF0E0EE0FFF1FE458FE4F35
:1026A000A591B491EC91E02309F4FDC0BE016B5EED
:1026B0007F4F90E080E00E94FB06BE016D5E7F4F81
:1026C00082E090E00E94FB06BE016F5E7F4F84E0D7
:1026D00090E00E94FB06BE01615F7F4F86E090E0C4
:1026E0000E94FB06BE01635F7F4F88E090E00E947E
:1026F000FB06BE01655F7F4F8AE090E00E94FB060B
:10270000BE01675F7F4F8CE090E00E94FB06BE0138
:10271000695F7F4F8EE090E00E94FB06BE016B5F19
:102720007F4F80E190E00E94FB06BE016D5F7F4F0E
:1027300082E190E00E94FB06BE016F5F7F4F84E163
:1027400090E00E94FB060CE010E06091760470912E
:102750007704660F771F60597D4F809174049091C4
:10276000750444960E94FB0660917604709177048C
:10277000660F771F660F771F605C7D4F8091740432
:10278000909175048C5B9F4F0E941F0760917604A7
:1027900070917704660F771F660F771F605F7D4F1C
:1027A00080917404909175048C589F4F0E941F076C
:1027B00080917404909175040496909375048093AD
:1027C0007404809176049091770401969093770435
:1027D000809376040150110909F0B7CF80918802E7
:1027E000909189026CE070E00E947816E8E7F4E0CE
:1027F000CB0130E020E041E7C42E42E0D42EE12CB2
:10280000F12C2115310509F0CBC0C0927804D0928B
:102810007904E0927A04F0927B042F5F3F4F860F99
:10282000971F34962C30310561F780918C0290917E
:102830008D02B9010E947816E8EAF4E030E020E069
:1028400090E080E0009709F0B5C01092A8041092C3
:10285000A9041092AA041092AB040196260F371F08
:1028600034968C30910571F700918E0210918F0291
:102870008AE00E9483011093DB040093DA0488EC61
:1028800090E09093D9048093D8048CED94E00E945A
:10289000E50300E010E00E944F0701151105D9F390
:1028A0000E940000F8CF68E872E090E080E00E94AB
:1028B000E7066AE872E082E090E00E94E7066CE8D2
:1028C00072E084E090E00E94E7066EE872E086E045
:1028D00090E00E94E70660E972E088E090E00E94E4
:1028E000E70662E972E08AE090E00E94E70664E9A8
:1028F00072E08CE090E00E94E7066BEE74E08EE000
:1029000090E00E94E70666E972E080E190E00E94B4
:10291000E70668E972E082E190E00E94E7066AE972
:1029200072E084E190E00E94E7067CE0C72ED12CA3
:10293000E0907204F090730400917004109171049F
:10294000B701660F771F60597D4FC80144960E94FA
:10295000E7065701AA0CBB1CAA0CBB1CB501605CA6
:102960007D4FC8018C5B9F4F0E94C106B501605F1F
:102970007D4FC8018C589F4F0E94C1060C5F1F4FAE
:1029800010937104009370048FEFE81AF80AF09224
:102990007304E092720481E0C81AD10849F61ECF90
:1029A0004C01092E000CAA08BB0880829182A282E9
:1029B000B38233CF6901032E000CEE08FF08C082FA
:1029C000D182E282F38249CF20919802309199021C
:1029D000032E000C440B550B61E070E089E594E098
:1029E0000E942B1220E030E0A90170E060E08AE450
:1029F00094E00E942B1220E030E0A90170E060E03A
:102A00008BE394E00E942B1220919A0230919B025A
:102A1000032E000C440B550B61E070E08CE294E057
:102A20000E942B1224EF31E040E050E061E070E0C2
:102A30008DE194E00E942B12209194023091950236
:102A4000032E000C440B550B61E070E08CED94E01C
:102A50000E942B1280EA96E8A1E0B0E08093FF0389
:102A600090930004A0930104B09302040E944403D5
:102A70006093030470930404809305049093060408
:102A80001092080410920704109209048CE0E2EA04
:102A9000F2E0AAE0B4E001900D928A95E1F710927D
:102AA0001604109218041092170410921904109230
:102AB0001A0410921B0410921C041092F903109235
:102AC000FA031092FB031092FC031092FE03109283
:102AD000FD03E5E9F3E01192119283E0E93FF80785
:102AE000D1F760EB72E088E694E00C94050688E686
:102AF00094E00C949F061F93FC0199278827BC0142
:102B0000E89411911032E9F3193010F01E30C8F337
:102B10001B3251F01D3249F4689406C00E94AD1575
:102B2000610F711D811D911D119110531A30B0F369
:102B30003EF490958095709561957F4F8F4F9F4F94
:102B40001F910895BB274A3031F4992322F4BDE246
:102B5000909581959F4F0C94E515592F482F372F4D
:102B6000262F660F771F881F991F660F771F881FF4
:102B7000991F620F731F841F951F660F771F881F91
:102B8000991F0895BB27FA01A62F621771058105C9
:102B90009105330B30FB66F0AA27660F771F881F5D
:102BA000991FAA1FA21710F0A21B63953850A9F70E
:102BB000A05DAA3308F0A95DA19336F7B111B193D6
:102BC0001082CA010C94FE15BB27FB015527AA27CA
:102BD000880F991FAA1FA41710F0A41B83955051AA
:102BE000B9F7A05DAA3308F0A95DA193009779F722
:102BF000B111B1931192CB010C94FE15DC01FC01D3
:102C0000672F71917723E1F7329704C07C916D9320
:102C100070836291AE17BF07C8F30895F999FECF8C
:102C200092BD81BDF89A992780B50895262FF9990C
:102C3000FECF1FBA92BD81BD20BD0FB6F894FA9A9F
:102C4000F99A0FBE019608950E945916A59F900DFE
:102C5000B49F900DA49F800D911D11240895B7FF7E
:102C60000C9424160E942416821B930B0895A1E253
:102C70001A2EAA1BBB1BFD010DC0AA1FBB1FEE1FF6
:102C8000FF1FA217B307E407F50720F0A21BB30B41
:102C9000E40BF50B661F771F881F991F1A9469F7BD
:102CA00060957095809590959B01AC01BD01CF0119
:102CB0000895A29FB001B39FC001A39F700D811D15
:102CC0001124911DB29F700D811D1124911D089535
:102CD000DB018F939F930E942416BF91AF91A29F17
:102CE000800D911DA39F900DB29F900D112408950A
:102CF00097FB072E16F4009407D077FD09D00E94A9
:102D0000941607FC05D03EF4909581959F4F089549
:102D1000709561957F4F0895EE0FFF1F881F8BBF41
:102D20000790F691E02D1994AA1BBB1B51E107C037
:102D3000AA1FBB1FA617B70710F0A61BB70B881F4B
:102D4000991F5A95A9F780959095BC01CD010895DA
:102D50000F931F93CF93DF938230910510F482E09D
:102D600090E0E0911A05F0911B0530E020E0B0E022
:102D7000A0E0309799F42115310509F44AC0281BC9
:102D8000390B24303105D8F58A819B816115710595
:102D900089F1FB0193838283FE0111C0408151813F
:102DA0000281138148175907E0F04817590799F431
:102DB000109761F012960C93129713961C9332960B
:102DC000CF01DF91CF911F910F91089500931A05C4
:102DD00010931B05F4CF2115310551F0421753070D
:102DE00038F0A901DB019A01BD01DF01F801C1CF73
:102DF000EF01F9CF90931B0580931A05CDCFFE010B
:102E0000E20FF31F81939193225031093983288374
:102E1000D7CF2091180530911905232B41F420912B
:102E20009E0230919F02309319052093180520913E
:102E30009C0230919D022115310541F42DB73EB71A
:102E40004091A0025091A102241B350BE09118057E
:102E5000F0911905E217F307A0F42E1B3F0B28177A
:102E6000390778F0AC014E5F5F4F2417350748F003
:102E70004E0F5F1F5093190540931805819391934E
:102E80009FCFF0E0E0E09CCFCF93DF930097E9F095
:102E9000FC01329713821282A0911A05B0911B0592
:102EA000ED0130E020E01097A1F420813181820F04
:102EB000931F20911805309119052817390709F03B
:102EC00061C0F0931905E0931805DF91CF91089543
:102ED000EA01CE17DF07E8F54A815B819E014115C3
:102EE0005105B1F7E901FB83EA8349915991C40F78
:102EF000D51FEC17FD0761F4808191810296840F44
:102F0000951FE90199838883828193819B838A83BA
:102F1000F0E0E0E012968D919C9113970097B9F53F
:102F20002D913C911197CD010296820F931F209114
:102F30001805309119052817390739F6309751F5DA
:102F400010921B0510921A05B0931905A09318054D
:102F5000BCCFD383C28340815181840F951FC81792
:102F6000D90761F44E5F5F4F88819981480F591FDF
:102F7000518340838A819B8193838283211531050C
:102F800009F0B0CFF0931B05E0931A059ECFFD0129
:102F9000DC01C0CF13821282D7CF4F925F926F9223
:102FA0007F928F929F92AF92BF92CF92DF92EF92D9
:102FB000FF920F931F93CF93DF938C01009799F4A7
:102FC000CB01DF91CF911F910F91FF90EF90DF9098
:102FD000CF90BF90AF909F908F907F906F905F90B9
:102FE0004F900C94A816FC01E60FF71F9C0122508D
:102FF0003109E217F30708F4AEC0D901CD91DC9195
:103000001197C617D70720F1C530D10578F0CE014A
:1030100004978617970750F0C61BD70B2297C193CA
:10302000D1936D937C93CF010E944417C801DF9127
:10303000CF911F910F91FF90EF90DF90CF90BF90B5
:10304000AF909F908F907F906F905F904F9008957A
:103050005B01AC1ABD0A4C018C0E9D1EA0911A0595
:10306000B0911B05512C412CF12CE12C109731F51E
:1030700080911805909119058815990509F05CC093
:103080004616570608F058C080919C0290919D0208
:10309000009741F48DB79EB74091A0025091A102D4
:1030A000841B950BE817F90708F055C0F093190534
:1030B000E0931805F90171836083B8CF8D919C91DD
:1030C000119712966C90129713967C901397A815EF
:1030D000B90559F56C0142E0C40ED11CCA14DB04D9
:1030E00020F1AC014A195B09DA011296159780F0BC
:1030F0006282738251834083D9016D937C93E11482
:10310000F10471F0D7011396FC93EE9312978ECFD2
:1031100022968C0F9D1FF90191838083F301EFCFDD
:10312000F0931B05E0931A0581CF4816590608F461
:103130002C017D01D3019ACFCB010E94A8167C01FE
:10314000009749F0AE01B8010E94AE18C8010E9474
:10315000441787016BCF10E000E068CFFB01DC0172
:1031600002C001900D9241505040D8F70895FB01E4
:10317000DC018D91019080190110D9F3990B08950C
:10318000FB01DC0101900D920020E1F7089511E0B0
:10319000CFE4D1E000E006C0802FFE010E948C1633
:1031A0002196011DC035D10780E00807A9F7F894E2
:0231B000FFCF4F
:1031B200750375037503750375037503750375034D
:1031C200010000001E0000008C0000000901000048
:1031D20036010000C20100004E0200006C02000035
:1031E200D20200004D030000BB030000FF030000F9
:1031F2000F0000001900000028000000320000004B
:103202003C00000046000000500000005A00000090
:10321200640000006E000000780000008C000000D6
:103222000F0023004C0070007C0087009C00B2005D
:10323200C500DE00EB00FA004C1D401F780068104C
:10324200C80050002003D007F4012C0100001C0527
:103252008000A0860100A0860100A0860100200057
:10326200426173650054696D696E670054656D70E3
:10327200004C696E65617200536574740054696D27
:10328200696E675F52504D5F576169740054696D92
:10329200696E675F54454D505F57616974004C69B0
:1032A2006E6561725F54454D505F5761697400539A
:1032B2004554545F576169740055533A0052504D5A
:1032C2003A0054454D503A0050573A0052504D2A58
:1032D2000054494D2A0054454D502A004C494E2A6B
:0832E20000534554542A00007A
:00000001FF
