:100000000C9450010C94CE110C94A3110C94781103
:100010000C944D110C9422110C94F7100C94CC10EC
:100020000C94A1100C9481010C9481010C94810119
:100030000C9481010C9481010C9481010C94810138
:100040000C9481010C9481010C9481010C94810128
:100050000C9481010C9481010C9481010C94571033
:100060000C9481010C942B120C94F9110C948101C5
:100070000C9481010C9481010C9481010C948101F8
:100080000C9481010C9481010C9481010C948101E8
:100090000C9481010C9481010C9481010C948101D8
:1000A0000C9481010C9481010C9481010C948101C8
:1000B0000C9481010C9481010C9481010C948101B8
:1000C0000C9481010C9481010C9481010C948101A8
:1000D0000C9481010C9481010C9481010C94810198
:1000E0000C9481010C94C6020C940A020C94170320
:1000F0000C94C7150C94D0020C94AD020C94D80249
:100100000C940E020C9435030C9425020C942B03D2
:100110000C9433020C94FE020C9475030C940602AA
:100120000C9421020C94FC010C943F030C943702B4
:100130000C9441020C942F020C94B2020C943C02D9
:100140000C94A6020C9402020C9421030C94F40269
:100150000C9411020C940D030C9417020C943D02A4
:100160000C942A150C94BC020C94EA020C941B0209
:100170000C94E0020C9404040C942902000020006A
:100180002300260029002C002F003200000100006F
:1001900003010601090100000A0B02090C0D0E08FB
:1001A0000703040100000000000000000000000040
:1001B000000000000000000000000000000000003F
:1001C00000001211100000000000000000000000FC
:1001D00000000000000000000000000000002200FD
:1001E000250028002B002E00310034000201000001
:1001F000050108010B0100002100240027002A004E
:100200002D003000330001010000040107010A0144
:1002100005050505070508080808020202020A0A82
:1002200008080404040401010101010101010303A0
:10023000030303030303040707070C0C0C0C0C0C4B
:100240000C0C0202020206060606060606060B0B48
:100250000B0B0B0B0B0B0102102020080810204089
:10026000102040800201020108040201010204087A
:100270001020408080402010080402018004020108
:100280008040201008040201080402010102040851
:100290001020408001020408102040802A15C71554
:1002A00011241FBECFEFD1E2DEBFCDBF00E00CBFF7
:1002B00013E0A0E0B2E0E2E5F2E300E00BBF02C031
:1002C00007900D92AA33B107D9F725E0AAE3B3E06E
:1002D00001C01D92AD32B207E1F711E0CFE4D1E0E9
:1002E00000E006C021970109802FFE010E94DC1664
:1002F000CE34D10780E00807A9F70E948D120C9434
:1003000017190C940000909128059F31C9F0909125
:1003100028059F5F209127052917E1F320912705E4
:10032000921769F0E0912805F0E0E95FFA4F8083C9
:10033000909328058091C10080628093C100089548
:1003400090E0E8CF90E0FC01EA5AFD4F2491805FF5
:100350009D4FFC018491882399F090E0880F991FAC
:10036000FC01EA50FE4FA591B491FC01E452FE4F0E
:10037000859194918FB7F894EC91E22BEC938FBF19
:100380000895EF92FF920F931F93CF93DF93FC0199
:1003900004811581C081D1817801EC0EFD1EEC161F
:1003A000FD0621F089910E948301F9CFC801DF91F8
:1003B000CF911F910F91FF90EF900895815082315E
:1003C00008F05AC0E82FF0E08827E651FE4F8F4F23
:1003D0000C94DC160A020E02FC01020206023C0228
:1003E000110217021B022102250229022F023302E9
:1003F0003C0237023D024102809180008F7780935A
:1004000080000895809180008F7DF9CF80918000D9
:10041000877FF5CF84B58F7784BD089584B58F7DB0
:10042000FBCF8091B0008F778093B00008958091CA
:10043000B0008F7DF9CF809190008F7780939000EE
:100440000895809190008F7DF9CF80919000877FF3
:10045000F5CF8091A0008F778093A00008958091C0
:10046000A0008F7DF9CF8091A000877FF5CF80918C
:1004700020018F77809320010895809120018F7D46
:10048000F9CF80912001877FF5CF1F93CF93DF9322
:10049000282F30E0F901EA56FE4F8491F901EA5A1B
:1004A000FD4FD491F901E05FFD4FC491CC23A9F039
:1004B000162F81110E94DE01EC2FF0E0EE0FFF1FDE
:1004C000E452FE4FA591B4918FB7F894EC911111BD
:1004D00008C0D095DE23DC938FBFDF91CF911F91B1
:1004E0000895DE2BF8CFCF93DF93EC0187E00E94D5
:1004F000A201209731F460E087E0DF91CF910C9466
:100500004502CF3FD10511F461E0F6CFEDE9F1E00E
:10051000E491E150E23108F0B2C0F0E08827EC56F7
:10052000FD4F8F4F0C94DC16A602AD02B202BC0246
:10053000C6023F03D002D802E002EA02F402FE0241
:100540000D0317033F0321032B03350384B5806894
:1005500084BDC7BDDF91CF91089584B5806284BD0D
:10056000C8BDF8CF80918000806880938000D093D0
:100570008900C0938800EECF8091800080628093D4
:100580008000D0938B00C0938A00E4CF80918000DC
:10059000886080938000D0938D00C0938C00DACF68
:1005A0008091B00080688093B000C093B300D2CF38
:1005B0008091B00080628093B000C093B400CACF35
:1005C00080919000806880939000D0939900C093B0
:1005D0009800C0CF80919000806280939000D0936B
:1005E0009B00C0939A00B6CF809190008860809362
:1005F0009000D0939D00C0939C00ACCF8091A00050
:1006000080688093A0008091A0008F7B8093A000E1
:10061000D093A900C093A8009DCF8091A0008062D4
:100620008093A000D093AB00C093AA0093CF809199
:10063000A00088608093A000D093AD00C093AC0070
:1006400089CF80912001806880932001D093290177
:10065000C09328017FCF8091200180628093200188
:10066000D0932B01C0932A0175CF8091200188601F
:1006700080932001D0932D01C0932C016BCFC03803
:10068000D1050CF041CF37CF3FB7F89480910305E7
:1006900090910405A0910505B091060526B5A89B8B
:1006A00005C02F3F19F00196A11DB11D3FBFBA2F04
:1006B000A92F982F8827BC01CD01620F711D811DC4
:1006C000911D42E0660F771F881F991F4A95D1F749
:1006D00008952FB7F8946091FF0470910005809100
:1006E0000105909102052FBF089508954F925F92E2
:1006F0006F927F92BF92CF92DF92EF92FF920F9311
:100700001F93CF93DF93FC01B584B11010C040E07C
:10071000842FDF91CF911F910F91FF90EF90DF9089
:10072000CF90BF907F906F905F904F900895EC01B5
:100730008685882361F10E946903488059806A8018
:100740007B80CC80DD80EE80FF808B019C010419D2
:100750001509260937090C151D052E053F05B8F2A8
:100760004C854423E9F08B019C010C191D092E09CD
:100770003F094C0C5D1C6E1C7F1C4C145D046E0408
:100780007F0440F4488259826A827B82C1CF0E94F2
:100790004403D3CF401651066206730650F3F2CFDE
:1007A0001D864B2DB5CFCF93DF93EC018E8588232B
:1007B00049F00E946903688379838A839B83DF9170
:1007C000CF9108950E944403F6CF0F931F93CF93C8
:1007D000DF93EC011D868E85882399F00E946903C2
:1007E000088119812A813B81601B710B820B930B5D
:1007F000688779878A879B87DF91CF911F910F91B7
:1008000008950E944403ECCFCF92DF92EF92FF92C3
:100810008091090490910A049C0121503109309380
:100820000A0420930904892BD9F589E090E090937C
:100830000A04809309040E944403C0900504D090E8
:100840000604E0900704F09008046C197D098E09F5
:100850009F096093010470930204809303049093B2
:1008600004048091010490910204A0910304B091CA
:1008700004044091050450910604609107047091AE
:100880000804840F951FA61FB71F8093050490933B
:100890000604A0930704B093080481E080930B043E
:1008A00080910002882309F460C0C0908F03D0902B
:1008B0009003E0909103F0909203F601EE0FFF1F7A
:1008C000EE58FD4FA081B1812091930330919403A4
:1008D00040919503509196030E947F16F601EE0F0A
:1008E000FF1FEE0FFF1FE658FB4F20813181428131
:1008F00053810E948716E0918B03F0918C03EE0FD9
:10090000FF1FEE0FFF1FEE5BFD4F8091FC049091E7
:10091000FD04092E000CAA0BBB0BC080D180E28025
:10092000F3808C0D9D1DAE1DBF1D280F391F4A1F62
:100930005B1FAAE0B0E00E94741661157105810585
:100940009105C1F060935004709351048093520458
:100950009093530481E080935804809359048CE46D
:1009600094E00E94D30310925804FF90EF90DF9020
:10097000CF9008958CE494E00E94E503F4CFEF92C9
:10098000FF920F931F93CF93DF93FC010190002000
:10099000E9F731978F01081B190BEC017C01E00E80
:1009A000F11ECE15DF0521F089910E948301F9CF58
:1009B000C801DF91CF911F910F91FF90EF900895A3
:1009C000FC0180819181009711F00C94CB1560E0BF
:1009D00070E0CB010895FC0124813581232B39F48B
:1009E00021E0FB018081882349F020E007C080815D
:1009F00091810E94071921E0892BB9F7822F089570
:100A00000F931F93CF93DF93EC0188819981009717
:100A100059F02A813B812617370730F081E0DF91BA
:100A2000CF911F910F9108958B016F5F7F4F0E94AF
:100A30001D18009759F0998388831B830A832C81A2
:100A40003D81232B59F7FC011082E8CF80E0E7CFEE
:100A5000EF92FF920F931F93CF93DF936115710570
:100A600041F480E0DF91CF911F910F91FF90EF90C3
:100A7000089541155105B1F07B01EC010C811D81F8
:100A8000040F151FB8010E940005882351F3288127
:100A900039818C819D81B701820F931F0E941019AB
:100AA0001D830C8381E0DECFCF93DF93EC0188813F
:100AB0009981009711F00E949417198218821D8263
:100AC0001C821B821A82DF91CF910895CF93DF930E
:100AD000EC0141E050E060EB72E00E9428058111DA
:100AE00003C0CE010E945405CE01DF91CF9108953D
:100AF000CF93DF93EC01FB014481558160817181CB
:100B00000E942805811103C0CE010E945405CE0128
:100B1000DF91CF910895EF92FF920F931F93CF93A0
:100B2000DF93EC017B018A01BA010E94000581116B
:100B30000BC0CE010E945405CE01DF91CF911F91D1
:100B40000F91FF90EF9008951D830C83B70188816A
:100B500099810E941019F0CFFB0101900020E9F764
:100B60003197AF01461B570B0C948B050F931F93C6
:100B7000CF93DF93CDB7DEB762970FB6F894DEBFA1
:100B80000FBECDBF8C01CB01F80111821082138200
:100B90001282158214824AE0BE016F5F7F4F0E946D
:100BA000F215BE016F5F7F4FC8010E94AC056296CF
:100BB0000FB6F894DEBF0FBECDBFDF91CF911F916E
:100BC0000F9108950F931F93CF93DF93CDB7DEB7A7
:100BD000A1970FB6F894DEBF0FBECDBF8C01CB013D
:100BE000BA01F801118210821382128215821482D6
:100BF0002AE0AE014F5F5F4F0E941216BE016F5F89
:100C00007F4FC8010E94AC05A1960FB6F894DEBFD5
:100C10000FBECDBFDF91CF911F910F910895FC01C1
:100C2000118210821382128215821482FB010190BC
:100C30000020E9F73197AF01461B570B0C948B0549
:100C40008F929F92AF92BF92CF92DF92EF92FF92DC
:100C50000F931F93CF93DF93EC018B01FB01C480B3
:100C6000D580D60111972FEF3FEFB12CA12C90E04A
:100C700080E070E060E0A817B9072CF1461757072D
:100C80002CF1FC0131967F018C159D0560F4F80173
:100C9000808091808114910431F0F401E80FF91FF4
:100CA000E081E03219F0A817B90759F46F5F7F4F60
:100CB0005901FFEFAF1ABF0A9701A817B90709F04A
:100CC0009C01C701D8CF46175707ECF569012A15D3
:100CD0003B0510F06501590161EB72E0CE010E9405
:100CE0000F06F801E480F580CE14DF04D8F4AE14CA
:100CF000BF0408F47501F80160817181FB01EE0DFC
:100D0000FF1DB08010826C0D7D1DCE016115710537
:100D1000B9F00E94AC05F80180819181E80EF91EBE
:100D2000F701B082CE01DF91CF911F910F91FF901B
:100D3000EF90DF90CF90BF90AF909F908F900895ED
:100D40000E945405E8CF61EB72E0CE010E940F06CD
:100D5000E9CFFC0180819181009711F00C949417E8
:100D60000895FB01DC0111961C921E9213961C92B1
:100D70001E92129715961C921E921497861797072B
:100D800049F0608171816115710521F044815581BF
:100D90000C948B050895CF92DF92EF92FF920F9300
:100DA0001F93CF93DF93EB017B0124E0E20EF11C54
:100DB0008B016C01C61AD70AC601800F911F0E94D1
:100DC0005E16F80181938F01EE15FF05A9F7CE019C
:100DD000DF91CF911F910F91FF90EF90DF90CF9017
:100DE00008950F931F93CF93DF938C01EB010E9423
:100DF0005E168883C80101960E945E168983CE0123
:100E0000DF91CF911F910F910895FF920F931F9340
:100E1000CF93DF93EC018B01FB01F0800E945E1603
:100E2000F81621F06F2DCE010E946616F801F180B0
:100E30002196CE010E945E16F81621F06F2DCE018C
:100E40000E946616C801DF91CF911F910F91FF900C
:100E500008959F92AF92BF92CF92DF92EF92FF924E
:100E60000F931F93CF93DF935C017B018B01D0E045
:100E7000C0E0F80191908F016501CC0EDD1EC60126
:100E80000E945E16981621F0692DC6010E94661612
:100E90002196C430D10569F7C701DF91CF911F9129
:100EA0000F91FF90EF90DF90CF90BF90AF909F9009
:100EB00008952F923F924F925F926F927F928F92FE
:100EC0009F92AF92BF92CF92DF92EF92FF920F93D9
:100ED0001F93CF93DF93CDB7DEB764970FB6F89427
:100EE000DEBF0FBECDBF8091700490917104891B4D
:100EF0008F7309F43CC30E9469036B017C0161EBB1
:100F000072E0CE010D960E940F060E9469036C19D3
:100F10007D098E099F09643671058105910570F57B
:100F20008091700490917104891B8F7371F30E94FA
:100F300069036B017C019091700480917104981792
:100F4000D9F0E0917104F0E0E65CFC4F9081809173
:100F500071048F5F80937104803410F010927104DB
:100F600099831A8241E050E0BE016F5F7F4FCE014E
:100F70000D960E942805C9CF9FEFF2CF62EB72E079
:100F8000CE010D960E94EB04811120C067EB72E048
:100F9000CE010D960E94EB04811118C06EEB72E039
:100FA000CE010D960E94EB04811110C063EC72E03B
:100FB000CE010D960E94EB04811108C06AEC72E02C
:100FC000CE010D960E94EB04882369F06D857E8525
:100FD0006115710511F40C94231049895A898AE628
:100FE00094E00E948B056FEC72E08AE694E00E9428
:100FF000EB04882309F456C032E7E32E32E0F32EE7
:1010000010E000E0BE01635F7F4FCE0101960E94B9
:10101000B106A801BE016F5F7F4FCE0107960E9407
:101020002006CE0107960E94E004F70161937193B8
:101030007F01CE0107960E94A906CE0101960E946B
:10104000A9060F5F1F4F0C301105E1F60CE010E010
:1010500060917C0370917D03660F771F6E587D4F02
:1010600080917A0390917B0344960E9405078091BA
:101070007A0390917B03049690937B0380937A0389
:1010800080917C0390917D03019690937D038093E2
:101090007C0301501109E1F662EB72E08AE694E00C
:1010A0000E94AC056FED72E08AE694E00E94EB04CA
:1010B000882309F45BC092E4E92E92E0F92E10E057
:1010C00000E0BE01635F7F4FCE0101960E94B10632
:1010D000A801BE016F5F7F4FCE0107960E942006D8
:1010E000CE0107960E94E004F7016193719381930A
:1010F00091937F01CE0107960E94A906CE01019629
:101100000E94A9060F5F1F4F0C301105D1F60CE0AD
:1011100010E06091800370918103660F771F660F66
:10112000771F6E5B7D4F80917E0390917F038C5B78
:101130009F4F0E94290780917E0390917F03049620
:1011400090937F0380937E0380918003909181032D
:101150000196909381038093800301501109C9F691
:1011600062EB72E08AE694E00E94AC0560EF72E008
:101170008AE694E00E94EB04882309F45BC0B2E1A4
:10118000EB2EB2E0FB2E10E000E0BE01635F7F4F6C
:10119000CE0101960E94B106A801BE016F5F7F4F8C
:1011A000CE0107960E942006CE0107960E94E00419
:1011B000F70161937193819391937F01CE0107961B
:1011C0000E94A906CE0101960E94A9060F5F1F4F3B
:1011D0000C301105D1F60CE010E0609184037091A1
:1011E0008503660F771F660F771F6E5E7D4F8091B8
:1011F0008203909183038C589F4F0E94290780910E
:1012000082039091830304969093830380938203D7
:101210008091840390918503019690938503809338
:10122000840301501109C9F662EB72E08AE694E08A
:101230000E94AC0561E073E08AE694E00E94EB0452
:10124000882309F490C1BE01635F7F4FCE010196F0
:101250000E94B10650E040E0BE016F5F7F4FCE01BB
:1012600007960E942006CE0107960E94E004709324
:101270008B0260938A02CE0107960E94A906CE01D6
:1012800001960E94A906BE01635F7F4FCE010196C1
:101290000E94B10641E050E0BE016F5F7F4FCE017A
:1012A00007960E942006CE0107960E94E0047093E4
:1012B0008F0260938E02CE0107960E94A906CE018E
:1012C00001960E94A906BE01635F7F4FCE01019681
:1012D0000E94B10642E050E0BE016F5F7F4FCE0139
:1012E00007960E942006CE0107960E94E0047093A4
:1012F0009D0260939C02CE0107960E94A906CE0132
:1013000001960E94A906BE01635F7F4FCE01019640
:101310000E94B10643E050E0BE016F5F7F4FCE01F7
:1013200007960E942006CE0107960E94E004709363
:101330008D0260938C02CE0107960E94A906CE0111
:1013400001960E94A906BE01635F7F4FCE01019600
:101350000E94B10644E050E0BE016F5F7F4FCE01B6
:1013600007960E942006CE0107960E94E004709323
:10137000910260939002CE0107960E94A906CE01C9
:1013800001960E94A906BE01635F7F4FCE010196C0
:101390000E94B10645E050E0BE016F5F7F4FCE0175
:1013A00007960E942006CE0107960E94E0047093E3
:1013B000970260939602CE0107960E94A906CE017D
:1013C00001960E94A906BE01635F7F4FCE01019680
:1013D0000E94B10646E050E0BE016F5F7F4FCE0134
:1013E00007960E942006CE0107960E94E0047093A3
:1013F000930260939202CE0107960E94A906CE0145
:1014000001960E94A906BE01635F7F4FCE0101963F
:101410000E94B10647E050E0BE016F5F7F4FCE01F2
:1014200007960E942006CE0107960E94E004709362
:10143000950260939402CE0107960E94A906CE0100
:1014400001960E94A906BE01635F7F4FCE010196FF
:101450000E94B10648E050E0BE016F5F7F4FCE01B1
:1014600007960E942006CE0107960E94E004709322
:10147000990260939802CE0107960E94A906CE01B8
:1014800001960E94A906BE01635F7F4FCE010196BF
:101490000E94B10649E050E0BE016F5F7F4FCE0170
:1014A00007960E942006CE0107960E94E0047093E2
:1014B000FD046093FC04CE0107960E94A906CE01AC
:1014C00001960E94A90680919002909191029093BA
:1014D000FB048093FA0488EC90E09093F9048093E5
:1014E000F8046AE872E090E080E00E9405076CE88A
:1014F00072E082E090E00E9405076EE872E084E00E
:1015000090E00E94050760E972E086E090E00E94AA
:10151000050762E972E088E090E00E94050764E94F
:1015200072E08AE090E00E94050766E972E08CE0D4
:1015300090E00E9405076CEF74E08EE090E00E945E
:10154000050768E972E080E190E00E9405076AE91A
:1015500072E082E190E00E9405076CE972E084E1AC
:1015600090E00E940507CE010D960E94A906809189
:101570000B04882309F460C010920B0480910104CD
:1015800090910204A0910304B0910404892B8A2B4A
:101590008B2B09F451C040910104509102046091D9
:1015A0000304709104048091180424E0829FF001E8
:1015B0001124EF5FFB4F43875487658776878F5FE2
:1015C000833008F046C58093180480910C049091F4
:1015D0000D04A0910E04B0910F04C0901004D0909F
:1015E0001104E0901204F0901304409114045091FF
:1015F00015046091160470911704C816D906EA06FE
:10160000FB0608F44CC5481759076A077B0708F41E
:1016100023C59A01AB01C216D306E406F50610F401
:10162000A701960160E076E483EC93E20E948716BE
:1016300030931A04209319040E9444030091050476
:10164000109106042091070430910804601B710B6F
:10165000820B930B613472448F40910520F01092FD
:101660001A04109219044091190450911A0470E060
:1016700060E04093930350939403609395037093B9
:1016800096038090A6049090A704A090A804B09020
:10169000A90400918F031091900330919103209140
:1016A0009203FAE7EF2EF4E0FF2EF70180E090E0DE
:1016B000DC01481559056A057B0508F0E2C4408045
:1016C000518062807380441555056605770550F09A
:1016D00044805580668077804416550666067706F6
:1016E00008F0CFC40196A11DB11D34968C30910530
:1016F000A105B105F1F600938F0310939003309389
:101700009103209392038EE294E00E947603882353
:1017100009F497C080917B00877F80937B0080E4F1
:1017200080937C0080917A00806480937A0080911D
:101730007A0086FDFCCF8091780040907900542C8F
:10174000482E20918703309188034091890350915E
:101750008A0372E1C72E72E0D72E0AEA14E0E2E4AF
:101760002E2EE2E03E2E1C8B0B8B052C000C660807
:101770007708F60181909190A190B1906F01481483
:1017800059046A047B0470F0EB89FC8960817181E3
:1017900082819381A30192010E94B816A501940150
:1017A0000E9487168B899C8904969C8B8B8B2C14AA
:1017B0003D04F9F62093870330938803409389030F
:1017C00050938A038090D6049090D704A090D804B8
:1017D000B090D904D0908B03C0908C0370918D038E
:1017E00060918E0380E090E0DC01281539054A0500
:1017F0005B0508F04AC4F801408051806280738024
:10180000241535054605570550F0448055806680FF
:101810007780421653066406750608F036C40196B2
:10182000A11DB11D0C5F1F4F8C309105A105B105A5
:10183000E1F6D0928B03C0928C0370938D0360937A
:101840008E038FE194E00E947603882309F446C05A
:101850008091FA049091FB04E091F804F091F9046E
:101860000091930310919403209195033091960376
:10187000AC014E0F5F1F052E000C660B770B041793
:1018800015072607370718F041E0409386038E1BA3
:101890009F0B092E000CAA0BBB0B80179107A20708
:1018A000B30710F010928603109101028091860315
:1018B0001817A1F001E01027612F80E20E94450275
:1018C0000093F60489EE94E00E94D3038091920283
:1018D000909193020E9473021093010289EE94E0AA
:1018E0000E947603882331F08091940290919502B2
:1018F0000E9473028AED94E00E947603882319F017
:1019000081E0809300028BE594E00E9476038823B7
:1019100009F4D6C062EB72E08AE694E00E94EB0420
:10192000882309F4CDC080908F0390909003A090FD
:101930009103B0909203F401EE0FFF1FEE58FD4F9C
:10194000A081B1812091930330919403409195033C
:10195000509196030E947F16F401EE0FFF1FEE0FC9
:10196000FF1FE658FB4F20813181428153810E9445
:101970008716E0918B03F0918C03EE0FFF1FEE0FA3
:10198000FF1FEE5BFD4F8091FC049091FD04092E3A
:10199000000CAA0BBB0B80809180A280B380880DC5
:1019A000991DAA1DBB1DBA01A901480F591F6A1F25
:1019B0007B1FCE0107960E94E2056BE073E0CE012B
:1019C00001960E940F06BE01695F7F4FCE0101960E
:1019D0000E9478050E9466050E94C101CE01019611
:1019E0000E94A906CE0107960E94A9064091930382
:1019F000509194036091950370919603CE010796E0
:101A00000E94E2056FE073E0CE0101960E940F068E
:101A1000BE01695F7F4FCE0101960E9478050E944A
:101A200066050E94C101CE0101960E94A906CE0161
:101A300007960E94A9064091870350918803609100
:101A4000890370918A03CE0107960E94E20564E142
:101A500073E0CE0101960E940F06BE01695F7F4FC1
:101A6000CE0101960E9478050E9466050E94C10180
:101A7000CE0101960E94A906CE0107960E94A906F2
:101A80006091860370E0CE0107960E94B6056AE178
:101A900073E0CE0101960E940F06BE01695F7F4F81
:101AA000CE0101960E9478050E9466050E94C10140
:101AB000CE0101960E94A906CE0107960E94A906B2
:101AC00067EB72E08AE694E00E94EB04882309F455
:101AD00055C08EE193E00E94BF040AEA14E0F701CA
:101AE00041915191619171917F01CE0101960E94C6
:101AF000E205BE016F5F7F4FCE0107960E94B106DF
:101B0000CE0107960E9466050E94C101CE0107968C
:101B10000E94A906CE0101960E94A9060E151F0576
:101B2000F1F683E293E00E94BF0402E712E0F801BD
:101B3000619171918F01CE0101960E94B605BE019F
:101B40006F5F7F4FCE0107960E94B106CE010796C8
:101B50000E9466050E94C101CE0107960E94A90657
:101B6000CE0101960E94A906F2E00A381F07F9F695
:101B70006FEC72E08AE694E00E94AC056EEB72E0D6
:101B80008AE694E00E94EB04882309F458C088E2B6
:101B900093E00E94BF040AEA14E0F80141915191D8
:101BA000619171918F01CE0101960E94E205BE0103
:101BB0006F5F7F4FCE0107960E94B106CE01079658
:101BC0000E9466050E94C101CE0107960E94A906E7
:101BD000CE0101960E94A906F4E00A3D1F07E9F62E
:101BE00083E293E00E94BF0402E412E0F801419115
:101BF0005191619171918F01CE0101960E94E20590
:101C0000BE016F5F7F4FCE0107960E94B106CE01E5
:101C100007960E9466050E94C101CE0107960E94A8
:101C2000A906CE0101960E94A906F2E002371F071D
:101C3000E9F66FED72E08AE694E00E94AC0563EC91
:101C400072E08AE694E00E94EB04882309F45BC00A
:101C500088E293E00E94BF040AEA14E08AEDE82ECD
:101C600084E0F82EF80141915191619171918F01B9
:101C7000CE0101960E94E205BE016F5F7F4FCE014B
:101C800007960E94B106CE0107960E9466050E9443
:101C9000C101CE0107960E94A906CE0101960E94BD
:101CA000A906E016F106F1F68EE293E00E94BF0469
:101CB00002E112E0F80141915191619171918F011E
:101CC000CE0101960E94E205BE016F5F7F4FCE01FB
:101CD00007960E94B106CE0107960E9466050E94F3
:101CE000C101CE0107960E94A906CE0101960E946D
:101CF000A906F2E002341F07E9F660EF72E08AE617
:101D000094E00E94AC056AEC72E08AE694E00E94DE
:101D1000EB04882309F42CC183E393E00E94BF0401
:101D200060918A0270918B02CE0101960E94B605E5
:101D3000BE016F5F7F4FCE0107960E94B106CE01B4
:101D400007960E9466050E94C101CE0107960E9477
:101D5000A906CE0101960E94A90660918E0270919B
:101D60008F02CE0101960E94B605BE016F5F7F4FC4
:101D7000CE0107960E94B106CE0107960E94660525
:101D80000E94C101CE0107960E94A906CE010196CC
:101D90000E94A90660919C0270919D02CE0101965D
:101DA0000E94B605BE016F5F7F4FCE0107960E946D
:101DB000B106CE0107960E9466050E94C101CE01C0
:101DC00007960E94A906CE0101960E94A90660917D
:101DD0008C0270918D02CE0101960E94B605BE0163
:101DE0006F5F7F4FCE0107960E94B106CE01079626
:101DF0000E9466050E94C101CE0107960E94A906B5
:101E0000CE0101960E94A906609190027091910204
:101E1000CE0101960E94B605BE016F5F7F4FCE01D5
:101E200007960E94B106CE0107960E9466050E94A1
:101E3000C101CE0107960E94A906CE0101960E941B
:101E4000A9066091960270919702CE0101960E94B8
:101E5000B605BE016F5F7F4FCE0107960E94B106A7
:101E6000CE0107960E9466050E94C101CE01079629
:101E70000E94A906CE0101960E94A90660919202D5
:101E800070919302CE0101960E94B605BE016F5F6C
:101E90007F4FCE0107960E94B106CE0107960E94A1
:101EA00066050E94C101CE0107960E94A906CE01D7
:101EB00001960E94A9066091940270919502CE014C
:101EC00001960E94B605BE016F5F7F4FCE01079657
:101ED0000E94B106CE0107960E9466050E94C101CC
:101EE000CE0107960E94A906CE0101960E94A9067E
:101EF0006091980270919902CE0101960E94B605F8
:101F0000BE016F5F7F4FCE0107960E94B106CE01E2
:101F100007960E9466050E94C101CE0107960E94A5
:101F2000A906CE0101960E94A9066091FC04709159
:101F3000FD04CE0101960E94B605BE016F5F7F4F82
:101F4000CE0107960E94B106CE0107960E94660553
:101F50000E94C101CE0107960E94A906CE010196FA
:101F60000E94A90661E073E08AE694E00E94AC0555
:101F70008CE494E00E947603882321F161E086E1FD
:101F80000E9445028091980290919902092E000CBE
:101F9000AA0BBB0B0097A105B10509F47BC0809388
:101FA000410490934204A0934304B093440481E01D
:101FB0008093490480934A048DE394E00E94D30304
:101FC000109249048DE394E00E947603882321F067
:101FD00060E086E10E94450280918A0290918B0226
:101FE000092E000CAA0BBB0B409193035091940354
:101FF000609195037091960384179507A607B7071C
:1020000048F41092000281E08093E7048AED94E0A6
:102010000E94D30364960FB6F894DEBF0FBECDBF07
:10202000DF91CF911F910F91FF90EF90DF90CF90B4
:10203000BF90AF909F908F907F906F905F904F90E8
:102040003F902F9008958AE694E00E9454050C94E6
:10205000F30710921804B9CA8C159D05AE05BF058B
:1020600068F04C155D056E057F0540F09A01AB01E7
:1020700082179307A407B50708F0D4CA9C01AD01E5
:10208000D1CA8C013A2F2B2F2DCBD82EC92E7A2FC7
:102090006B2FC5CB8DE394E00E94E50391CF4C15E7
:1020A0005D056E057F0510F7D701C601E7CF1F92CA
:1020B0000F920FB60F9211242F933F938F939F93FC
:1020C000AF93BF938091FF0490910005A09101050B
:1020D000B09102053091FE0423E0230F2D3758F50F
:1020E0000196A11DB11D2093FE048093FF049093DF
:1020F0000005A0930105B09302058091030590911E
:102100000405A0910505B09106050196A11DB11D1C
:102110008093030590930405A0930505B0930605ED
:10212000BF91AF919F918F913F912F910F900FBED3
:102130000F901F90189526E8230F0296A11DB11D40
:10214000D2CF1F920F920FB60F9211240BB60F929F
:102150002F933F934F935F936F937F938F939F93AF
:10216000AF93BF93EF93FF93E0911002F0911102B0
:102170001995FF91EF91BF91AF919F918F917F91B1
:102180006F915F914F913F912F910F900BBE0F90E8
:102190000FBE0F901F9018951F920F920FB60F92BF
:1021A00011240BB60F922F933F934F935F936F932E
:1021B0007F938F939F93AF93BF93EF93FF93E091A0
:1021C0000E02F0910F021995FF91EF91BF91AF911F
:1021D0009F918F917F916F915F914F913F912F913F
:1021E0000F900BBE0F900FBE0F901F9018951F926F
:1021F0000F920FB60F9211240BB60F922F933F93AD
:102200004F935F936F937F938F939F93AF93BF93FE
:10221000EF93FF93E0910402F09105021995FF916D
:10222000EF91BF91AF919F918F917F916F915F914E
:102230004F913F912F910F900BBE0F900FBE0F90BB
:102240001F9018951F920F920FB60F9211240BB684
:102250000F922F933F934F935F936F937F938F933F
:102260009F93AF93BF93EF93FF93E0910202F0919E
:1022700003021995FF91EF91BF91AF919F918F91BB
:102280007F916F915F914F913F912F910F900BBE76
:102290000F900FBE0F901F9018951F920F920FB6C0
:1022A0000F9211240BB60F922F933F934F935F938E
:1022B0006F937F938F939F93AF93BF93EF93FF930E
:1022C000E0910C02F0910D021995FF91EF91BF91F1
:1022D000AF919F918F917F916F915F914F913F91BE
:1022E0002F910F900BBE0F900FBE0F901F9018955F
:1022F0001F920F920FB60F9211240BB60F922F93CD
:102300003F934F935F936F937F938F939F93AF937D
:10231000BF93EF93FF93E0910A02F0910B0219959E
:10232000FF91EF91BF91AF919F918F917F916F91AD
:102330005F914F913F912F910F900BBE0F900FBE69
:102340000F901F9018951F920F920FB60F921124A5
:102350000BB60F922F933F934F935F936F937F939F
:102360008F939F93AF93BF93EF93FF93E0910802F6
:10237000F09109021995FF91EF91BF91AF919F9153
:102380008F917F916F915F914F913F912F910F901E
:102390000BBE0F900FBE0F901F9018951F920F92BB
:1023A0000FB60F9211240BB60F922F933F934F93BA
:1023B0005F936F937F938F939F93AF93BF93EF93AD
:1023C000FF93E0910602F09107021995FF91EF91BA
:1023D000BF91AF919F918F917F916F915F914F913D
:1023E0003F912F910F900BBE0F900FBE0F901F903B
:1023F00018951F920F920FB60F9211240BB60F92E1
:102400008F939F93EF93FF93E0912705F0E0E95FAF
:10241000FA4F80818093C600809127058F5F80935B
:102420002705803210F010922705909128058091A1
:102430002705981305C08091C1008F7D8093C1004E
:10244000FF91EF919F918F910F900BBE0F900FBE58
:102450000F901F9018951F920F920FB60F92112494
:102460000BB60F922F938F939F93EF93FF938091CF
:10247000C00082FF0EC08091C600FF91EF919F9136
:102480008F912F910F900BBE0F900FBE0F901F904A
:1024900018959091C600809170048F3381F08091DF
:1024A00070048F5F20917104281739F3E091700454
:1024B000F0E0E65CFC4F908380937004DECF80E018
:1024C000F1CF1F93CF93DF93EC01162F188219825F
:1024D0001A821B821C821D821E821F821886198608
:1024E0001A861B8681E08C871D868E872115310513
:1024F0004105510571F02C833D834E835F838D87A9
:10250000CE010E94D30311701E87DF91CF911F91DE
:102510000895CE010E94E503F6CFCF93DF93CDB7A8
:10252000DEB766970FB6F894DEBF0FBECDBF7894C6
:1025300084B5826084BD84B5816084BD85B58260C8
:1025400085BD85B5816085BD80916E008160809379
:102550006E001092810080918100826080938100E2
:1025600080918100816080938100809180008160F2
:10257000809380008091B10084608093B10080914D
:10258000B00081608093B000809191008260809360
:1025900091008091910081608093910080919000E2
:1025A0008160809390008091A10082608093A1005F
:1025B0008091A10081608093A1008091A000816042
:1025C0008093A000809121018260809321018091FD
:1025D000210181608093210180912001816080939D
:1025E000200180917A00846080937A0080917A0043
:1025F000826080937A0080917A00816080937A0073
:1026000080917A00806880937A001092C100809156
:10261000A000807E81608093A0008091A100807ED8
:1026200089608093A10087E00E94A20186E10E9458
:10263000A20180E20E94A2011092C50080E1809375
:10264000C40082E08093C00088E98093C10086E0E6
:102650008093C200109271041092700410922705AA
:102660001092280584E094E0909305028093040280
:1026700080916A008C6080936A00ED9A80909C0241
:1026800090909D02A0909A02B0909B028091980237
:10269000909199022091FC043091FD0440919602A2
:1026A000509197026091940270919502E09192028C
:1026B000F0919302A0919002B091910200918E024C
:1026C00010918F02E0908C02F0908D02C0908A02EF
:1026D000D0908B02DE8ACD8AFC8AEB8A1A8B098B1A
:1026E000B88BAF87FE87ED877C876B875A874987D2
:1026F00038872F839E838D83BC82AB829A828982A6
:10270000EEEAF1E08491EEE6F2E00491E8E2F2E034
:102710001491112309F40DC181110E94DE01E12FF2
:10272000F0E0EE0FFF1FE458FE4FA591B491EC913D
:10273000E02309F4FEC0BE016B5E7F4F90E080E0B5
:102740000E940507BE016D5E7F4F82E090E00E940F
:102750000507BE016F5E7F4F84E090E00E94050791
:10276000BE01615F7F4F86E090E00E940507BE01D9
:10277000635F7F4F88E090E00E940507BE01655FC0
:102780007F4F8AE090E00E940507BE01675F7F4FA0
:102790008CE090E00E940507BE01695F7F4F8EE0EC
:1027A00090E00E940507BE016B5F7F4F80E190E0E3
:1027B0000E940507BE016D5F7F4F82E190E00E949D
:1027C0000507BE016F5F7F4F84E190E00E9405071F
:1027D0000CE010E06091780470917904660F771F27
:1027E0006E587D4F809176049091770444960E94B4
:1027F00005076091780470917904660F771F660F62
:10280000771F6E5B7D4F80917604909177048C5B8F
:102810009F4F0E9429076091780470917904660F98
:10282000771F660F771F6E5E7D4F809176049091C3
:1028300077048C589F4F0E942907809176049091CD
:1028400077040496909377048093760480917804BB
:1028500090917904019690937904809378040150C3
:10286000110909F0B7CF80918A0290918B026CE038
:1028700070E00E94C816EAE7F4E0CB0130E020E007
:1028800041E7C42E42E0D42EE12CF12C2115310574
:1028900009F0CCC0C0927A04D0927B04E0927C0410
:1028A000F0927D042F5F3F4F860F971F34962C3098
:1028B000310561F780918E0290918F02B9010E94DB
:1028C000C816EAEAF4E030E020E090E080E000970B
:1028D00009F0B6C01092AA041092AB041092AC0496
:1028E0001092AD040196260F371F34968C30910557
:1028F00071F780919002909191029093FB048093E4
:10290000FA0488EC90E09093F9048093F80489EE3F
:1029100094E00E94E5038AED94E00E94E50300E064
:1029200010E00E94590701151105D9F30E9400001B
:10293000F8CF6AE872E090E080E00E94F1066CE86F
:1029400072E082E090E00E94F1066EE872E084E0BE
:1029500090E00E94F10660E972E086E090E00E945B
:10296000F10662E972E088E090E00E94F10664E915
:1029700072E08AE090E00E94F10666E972E08CE085
:1029800090E00E94F1066CEF74E08EE090E00E940F
:10299000F10668E972E080E190E00E94F1066AE9E0
:1029A00072E082E190E00E94F1066CE972E084E15D
:1029B00090E00E94F1067CE0C72ED12CE0907404D8
:1029C000F09075040091720410917304B701660FC2
:1029D000771F6E587D4FC80144960E94F10657013B
:1029E000AA0CBB1CAA0CBB1CB5016E5B7D4FC801B9
:1029F0008C5B9F4F0E94CB06B5016E5E7D4FC80178
:102A00008C589F4F0E94CB060C5F1F4F109373048E
:102A1000009372048FEFE81AF80AF0927504E092BE
:102A2000740481E0C81AD10849F61DCF4C01092E63
:102A3000000CAA08BB0880829182A282B38232CFA6
:102A40006901032E000CEE08FF08C082D182E282E9
:102A5000F38248CF20919A0230919B02032E000C02
:102A6000440B550B61E070E08BE594E00E9461122D
:102A700020E030E0A90170E060E08CE494E00E9486
:102A8000611220E030E0A90170E060E08DE394E0A5
:102A90000E94611220919C0230919D02032E000C35
:102AA000440B550B61E070E08EE294E00E946112ED
:102AB00024EF31E040E050E061E070E08FE194E02D
:102AC0000E9461122091960230919702032E000C11
:102AD000440B550B61E070E089EE94E00E946112B6
:102AE00028EC30E040E050E061E070E08AED94E0F6
:102AF0000E94611280EA96E8A1E0B0E080930104B0
:102B000090930204A0930304B09304040E9444032E
:102B1000609305047093060480930704909308045F
:102B200010920A041092090410920B048CE0E4EA5B
:102B3000F2E0ACE0B4E001900D928A95E1F71092DA
:102B4000180410921A041092190410921B04109287
:102B50001C0410921D0410921E041092FB0310928C
:102B6000FC031092FD031092FE03109200041092D9
:102B7000FF03E7E9F3E01192119283E0EB3FF807DE
:102B8000D1F762EB72E08AE694E00C940F068AE6D5
:102B900094E00C94A9061F93FC0199278827BC0197
:102BA000E89411911032E9F3193010F01E30C8F397
:102BB0001B3251F01D3249F4689406C00E94FD1585
:102BC000610F711D811D911D119110531A30B0F3C9
:102BD0003EF490958095709561957F4F8F4F9F4FF4
:102BE0001F910895BB274A3031F4992322F4BDE2A6
:102BF000909581959F4F0C943516592F482F372F5C
:102C0000262F660F771F881F991F660F771F881F53
:102C1000991F620F731F841F951F660F771F881FF0
:102C2000991F0895BB27FA01A62F62177105810528
:102C30009105330B30FB66F0AA27660F771F881FBC
:102C4000991FAA1FA21710F0A21B63953850A9F76D
:102C5000A05DAA3308F0A95DA19336F7B111B19335
:102C60001082CA010C944E16BB27FB015527AA27D8
:102C7000880F991FAA1FA41710F0A41B8395505109
:102C8000B9F7A05DAA3308F0A95DA193009779F781
:102C9000B111B1931192CB010C944E16DC01FC01E1
:102CA000672F71917723E1F7329704C07C916D9380
:102CB00070836291AE17BF07C8F30895F999FECFEC
:102CC00092BD81BDF89A992780B50895262FF9996C
:102CD000FECF1FBA92BD81BD20BD0FB6F894FA9AFF
:102CE000F99A0FBE019608950E94A916A59F900D0E
:102CF000B49F900DA49F800D911D11240895B7FFDE
:102D00000C9474160E947416821B930B0895A1E212
:102D10001A2EAA1BBB1BFD010DC0AA1FBB1FEE1F55
:102D2000FF1FA217B307E407F50720F0A21BB30BA0
:102D3000E40BF50B661F771F881F991F1A9469F71C
:102D400060957095809590959B01AC01BD01CF0178
:102D50000895A29FB001B39FC001A39F700D811D74
:102D60001124911DB29F700D811D1124911D089594
:102D7000DB018F939F930E947416BF91AF91A29F26
:102D8000800D911DA39F900DB29F900D1124089569
:102D900097FB072E16F4009407D077FD09D00E9408
:102DA000E41607FC05D03EF4909581959F4F089559
:102DB000709561957F4F0895EE0FFF1F881F8BBFA1
:102DC0000790F691E02D1994AA1BBB1B51E107C097
:102DD000AA1FBB1FA617B70710F0A61BB70B881FAB
:102DE000991F5A95A9F780959095BC01CD0108953A
:102DF0000F931F93CF93DF938230910510F482E0FD
:102E000090E0E0912B05F0912C0530E020E0B0E05F
:102E1000A0E0309799F42115310509F44AC0281B28
:102E2000390B24303105D8F58A819B8161157105F4
:102E300089F1FB0193838283FE0111C0408151819E
:102E40000281138148175907E0F04817590799F490
:102E5000109761F012960C93129713961C9332966A
:102E6000CF01DF91CF911F910F91089500932B0512
:102E700010932C05F4CF2115310551F0421753075B
:102E800038F0A901DB019A01BD01DF01F801C1CFD2
:102E9000EF01F9CF90932C0580932B05CDCFFE0148
:102EA000E20FF31F819391932250310939832883D4
:102EB000D7CF2091290530912A05232B41F4209169
:102EC000A0023091A10230932A0520932905209178
:102ED0009E0230919F022115310541F42DB73EB776
:102EE0004091A2025091A302241B350BE0912905C9
:102EF000F0912A05E217F307A0F42E1B3F0B2817C9
:102F0000390778F0AC014E5F5F4F2417350748F062
:102F10004E0F5F1F50932A0540932905819391938B
:102F20009FCFF0E0E0E09CCFCF93DF930097E9F0F4
:102F3000FC01329713821282A0912B05B0912C05CF
:102F4000ED0130E020E01097A1F420813181820F63
:102F5000931F2091290530912A052817390709F078
:102F600061C0F0932A05E0932905DF91CF91089580
:102F7000EA01CE17DF07E8F54A815B819E01411522
:102F80005105B1F7E901FB83EA8349915991C40FD7
:102F9000D51FEC17FD0761F4808191810296840FA3
:102FA000951FE90199838883828193819B838A831A
:102FB000F0E0E0E012968D919C9113970097B9F59F
:102FC0002D913C911197CD010296820F931F209174
:102FD000290530912A052817390739F6309751F518
:102FE00010922C0510922B05B0932A05A093290569
:102FF000BCCFD383C28340815181840F951FC817F2
:10300000D90761F44E5F5F4F88819981480F591F3E
:10301000518340838A819B8193838283211531056B
:1030200009F0B0CFF0932C05E0932B059ECFFD0166
:10303000DC01C0CF13821282D7CF4F925F926F9282
:103040007F928F929F92AF92BF92CF92DF92EF9238
:10305000FF920F931F93CF93DF938C01009799F406
:10306000CB01DF91CF911F910F91FF90EF90DF90F7
:10307000CF90BF90AF909F908F907F906F905F9018
:103080004F900C94F816FC01E60FF71F9C0122509C
:103090003109E217F30708F4AEC0D901CD91DC91F4
:1030A0001197C617D70720F1C530D10578F0CE01AA
:1030B00004978617970750F0C61BD70B2297C1932A
:1030C000D1936D937C93CF010E949417C801DF9137
:1030D000CF911F910F91FF90EF90DF90CF90BF9015
:1030E000AF909F908F907F906F905F904F900895DA
:1030F0005B01AC1ABD0A4C018C0E9D1EA0912B05E4
:10310000B0912C05512C412CF12CE12C109731F56C
:103110008091290590912A058815990509F05CC0D0
:103120004616570608F058C080919E0290919F0263
:10313000009741F48DB79EB74091A2025091A3022F
:10314000841B950BE817F90708F055C0F0932A0582
:10315000E0932905F90171836083B8CF8D919C912B
:10316000119712966C90129713967C901397A8154E
:10317000B90559F56C0142E0C40ED11CCA14DB0438
:1031800020F1AC014A195B09DA011296159780F01B
:103190006282738251834083D9016D937C93E114E1
:1031A000F10471F0D7011396FC93EE9312978ECF32
:1031B00022968C0F9D1FF90191838083F301EFCF3D
:1031C000F0932C05E0932B0581CF4816590608F49F
:1031D0002C017D01D3019ACFCB010E94F8167C010E
:1031E000009749F0AE01B8010E94FE18C8010E9484
:1031F000941787016BCF10E000E068CFFB01DC0182
:1032000002C001900D9241505040D8F70895FB0143
:10321000DC018D91019080190110D9F3990B08956B
:10322000FB01DC0101900D920020E1F7089511E00F
:10323000CFE4D1E000E006C0802FFE010E94DC1642
:103240002196011DC035D10780E00807A9F7F89441
:02325000FFCFAE
:103252000101750375037503750375037503750322
:103262007503010000001E0000008C00000009012F
:10327200000036010000C20100004E0200006C0294
:103282000000D20200004D030000BB030000FF0358
:1032920000000F00000019000000280000003200AA
:1032A20000003C00000046000000500000005A00F0
:1032B2000000640000006E000000780000008C0036
:1032C20000000F0023004C0070007C0087009C006F
:1032D200B200C500DE00EB00FA004C1D401F780072
:1032E2006810C80050002003D007F4012C01000030
:1032F2002D058000A0860100A0860100A0860100A5
:103302002000426173650054696D696E67005465FF
:103312006D70004C696E656172005365747400547F
:10332200696D696E675F52504D5F576169740054F1
:10333200696D696E675F54454D505F5761697400EE
:103342004C696E6561725F54454D505F5761697497
:1033520000534554545F576169740055533A005203
:10336200504D3A0054454D503A0050573A00525091
:103372004D2A0054494D2A0054454D502A004C49CB
:0A3382004E2A00534554542A00005F
:00000001FF
